:100000000C9462000C948A000C948A000C948A0070
:100010000C948A000C948A000C948A000C948A0038
:100020000C948A000C948A000C948A000C948A0028
:100030000C948A000C948A000C948A000C948A0018
:100040000C94A3030C948A000C9413040C94ED03F9
:100050000C948A000C948A000C948A000C948A00F8
:100060000C948A000C948A000000000024002700F1
:100070002A0000000000250028002B0000000000DE
:1000800023002600290004040404040404040202DA
:100090000202020203030303030301020408102007
:1000A0004080010204081020010204081020000012
:1000B0000008000201000003040700000000000027
:1000C0000000E20511241FBECFEFD8E0DEBFCDBF98
:1000D00011E0A0E0B1E0EAEEF0E102C005900D927F
:1000E000A438B107D9F722E0A4E8B1E001C01D921D
:1000F000A733B207E1F710E0C2E6D0E004C02197D1
:10010000FE010E946D08C136D107C9F70E9445045F
:100110000C9473080C940000833081F028F4813033
:1001200099F08230A9F008958730A9F08830C9F09D
:100130008430B1F4809180008F7D03C08091800075
:100140008F7780938000089584B58F7784BD08955C
:1001500084B58F7DFBCF8091B0008F778093B00006
:1001600008958091B0008F7DF9CFCF93DF93ECEBB2
:10017000F0E08491E8EAF0E0D491E4E9F0E0C491A1
:10018000CC23A1F081110E948C00EC2FF0E0EE0F47
:10019000FF1FE458FF4FA591B491EC91ED2381E04E
:1001A00090E009F480E0DF91CF91089580E090E045
:1001B000FACF1F93CF93DF93ECEBF0E09491E8EA52
:1001C000F0E0D491E4E9F0E0C491CC23B9F0182F29
:1001D000992319F0892F0E948C00EC2FF0E0EE0F8C
:1001E000FF1FEE58FF4FA591B4918FB7F894EC9193
:1001F000111108C0D095DE23DC938FBFDF91CF9122
:100200001F910895DE2BF8CF3FB7F89480919601A7
:1002100090919701A0919801B091990126B5A89B62
:1002200005C02F3F19F00196A11DB11D3FBFBA2F88
:10023000A92F982F8827BC01CD01620F711D811D48
:10024000911D42E0660F771F881F991F4A95D1F7CD
:1002500008958F929F92AF92BF92CF92DF92EF92CA
:10026000FF924B015C010E9404016B017C010E9422
:1002700004016C197D098E099F09683E7340810550
:100280009105A8F321E0821A9108A108B10888EE2F
:10029000C80E83E0D81EE11CF11C81149104A10456
:1002A000B10429F7FF90EF90DF90CF90BF90AF900F
:1002B0009F908F900895AF92BF92CF92DF92EF926E
:1002C000FF920F931F93CF93DF936C017B018B0100
:1002D000040F151FEB015E01AE18BF08C017D10750
:1002E00059F06991D601ED91FC910190F081E02DDA
:1002F000C6010995892B79F7C501DF91CF911F912F
:100300000F91FF90EF90DF90CF90BF90AF90089546
:10031000FC01538D448D252F30E0842F90E0821B0B
:10032000930B541710F0CF96089501970895FC0190
:10033000918D828D981761F0A28DAE0FBF2FB11DE8
:100340005D968C91928D9F5F9F73928F90E0089540
:100350008FEF9FEF0895FC01918D828D981731F0FA
:10036000828DE80FF11D858D90E008958FEF9FEF4E
:100370000895FC01918D228D892F90E0805C9F4F24
:10038000821B91098F73992708958AE991E00E9451
:10039000B90121E0892B09F420E0822F089580E043
:1003A00090E0892B29F00E94C50181110C94000076
:1003B0000895FC01A48DA80FB92FB11DA35ABF4FFA
:1003C0002C91848D90E001968F739927848FA68954
:1003D000B7892C93A089B1898C91837080648C93A8
:1003E000938D848D981306C00288F389E02D808157
:1003F0008F7D80830895EF92FF920F931F93CF9389
:10040000DF93EC0181E0888F9B8D8C8D98131AC04F
:10041000E889F989808185FF15C09FB7F894EE8936
:10042000FF896083E889F989808183708064808393
:100430009FBF81E090E0DF91CF911F910F91FF90DE
:10044000EF900895F62E0B8D10E00F5F1F4F0F7386
:100450001127E02E8C8D8E110CC00FB607FCFACF41
:10046000E889F989808185FFF5CFCE010E94D90105
:10047000F1CFEB8DEC0FFD2FF11DE35AFF4FF08212
:100480009FB7F8940B8FEA89FB8980818062CFCF78
:10049000CF93DF93EC01888D8823B9F0AA89BB89BB
:1004A000E889F9898C9185FD03C0808186FD0DC0A6
:1004B0000FB607FCF7CF8C9185FFF2CF808185FFC7
:1004C000EDCFCE010E94D901E9CFDF91CF91089500
:1004D000FC0101900020E9F73197AF01481B590B4F
:1004E000BC018AE991E00C945B018F929F92AF92DC
:1004F000BF920F931F93CF93DF93CDB7DEB7A19732
:100500000FB6F894DEBF0FBECDBF19A2423008F47B
:100510004AE08E010F5D1F4F842E912CB12CA12C2F
:10052000A50194010E940F06E62FB901CA01EA3025
:10053000F4F4E05DD801EE938D01232B242B252BC1
:1005400079F790E080E0109719F0CD010E946802E1
:10055000A1960FB6F894DEBF0FBECDBFDF91CF914D
:100560001F910F91BF90AF909F908F900895E95C7D
:10057000E1CFCF93DF930E946802EC0182E191E02A
:100580000E9468028C0F9D1FDF91CF9108954F92BA
:100590005F926F927F928F929F92AF92BF92CF9213
:1005A000DF92EF92FF920F931F93CF936B017C0129
:1005B000742EAC019B010E946808882399F085E1A4
:1005C00091E0CF911F910F91FF90EF90DF90CF902E
:1005D000BF90AF909F908F907F906F905F904F9063
:1005E0000C94680246015701E894B7F82FEF3FEFEB
:1005F0004FE75FE7C501B4010E94680881110DC093
:100600002FEF3FEF4FE75FE7C501B4010E949E0661
:1006100018161CF489E191E0D4CF2FEF3FEF4FE79C
:100620005FE4C701B6010E94F60718161CF48DE1BD
:1006300091E0C7CF2FEF3FEF4FE75FECC701B60167
:100640000E949E0687FDF3CF20E030E0A901C7019C
:10065000B6010E949E0610E000E087FF0AC06DE22E
:100660008AE991E00E94FB018C01F7FAF094F7F817
:10067000F094C0E060E070E080E09FE37C1641F021
:1006800020E030E040E251E40E94A306CF5FF6CFC5
:10069000A70196010E9432062B013C010E9415071A
:1006A0004B015C014AE00E9475027C01E00EF11EE4
:1006B000CC23C1F1C501B4010E9444079B01AC01E8
:1006C000C301B2010E9431064B015C016EE28AE96E
:1006D00091E00E94FB01E80EF91EC15018F120E0E4
:1006E00030E040E251E4C501B4010E94FB072B0158
:1006F0003C010E9415074B01B12CA12C4AE0C50119
:10070000B4010E947502E80EF91EC501B4010E94F1
:1007100044079B01AC01C301B2010E9431064B01A9
:100720005C01DBCFC701CF911F910F91FF90EF903C
:10073000DF90CF90BF90AF909F908F907F906F9001
:100740005F904F9008951F920F920FB60F92112451
:100750002F933F938F939F93AF93BF938091920179
:1007600090919301A0919401B091950130919101E4
:1007700023E0230F2D3758F50196A11DB11D2093BD
:1007800091018093920190939301A0939401B0936F
:1007900095018091960190919701A0919801B09157
:1007A00099010196A11DB11D809396019093970127
:1007B000A0939801B0939901BF91AF919F918F91B0
:1007C0003F912F910F900FBE0F901F90189526E824
:1007D000230F0296A11DB11DD2CF1F920F920FB60B
:1007E0000F9211242F933F934F935F936F937F93B7
:1007F0008F939F93AF93BF93EF93FF938AE991E019
:100800000E94D901FF91EF91BF91AF919F918F917C
:100810007F916F915F914F913F912F910F900FBEFC
:100820000F901F9018951F920F920FB60F921124E0
:100830002F938F939F93EF93FF93E091AA01F091F1
:10084000AB018081E091B001F091B10182FD1BC04C
:1008500090818091B3018F5F8F732091B4018217D3
:1008600041F0E091B301F0E0E656FE4F958F8093A2
:10087000B301FF91EF919F918F912F910F900FBE38
:100880000F901F9018958081F4CF789484B5826082
:1008900084BD84B5816084BD85B5826085BD85B524
:1008A000816085BD80916E00816080936E001092A2
:1008B000810080918100826080938100809181001D
:1008C00081608093810080918000816080938000AE
:1008D0008091B10084608093B1008091B00081600C
:1008E0008093B00080917A00846080937A00809138
:1008F0007A00826080937A0080917A008160809390
:100900007A0080917A00806880937A001092C1000A
:10091000E091AA01F091AB0182E08083E091A60111
:10092000F091A7011082E091A801F091A9018FEC4C
:1009300080831092B201E091AE01F091AF0186E0A8
:100940008083E091AC01F091AD0180818061808372
:10095000E091AC01F091AD01808188608083E091ED
:10096000AC01F091AD01808180688083E091AC01A1
:10097000F091AD0180818F7D808368EE73E080E02F
:1009800090E00E94290181E291E00E94B9026CEDA1
:1009900075E080E090E00E9429018BE391E00E94E5
:1009A000B90268EE73E080E090E00E94290154E90A
:1009B000252E50E0352E6BE9662E712CCC24C39485
:1009C000D12CE0E0EE2EE0E0FE2E10928C01109291
:1009D0008D0110928E0110928F0110929001E8EA21
:1009E000F0E02491F1018491882399F090E0880F40
:1009F000991FFC01E859FF4FA591B491FC01EE58F5
:100A0000FF4F859194918FB7F8949C91292B2C934B
:100A10008FBF80E00E94D90064E170E080E090E048
:100A20000E94290181E00E94D900C3010197F1F7DA
:100A3000E8EAF0E02491F10184918823C1F090E08C
:100A4000880F991FFC01E859FF4FA591B491FC0153
:100A5000EE58FF4FC591D4913FB7F8949C91822FE7
:100A6000809598239C939881892388833FBFC1E117
:100A7000D7E20E94B500892B09F03EC02197C9F743
:100A800080E691E00E946802609184017091850186
:100A9000809186019091870142E00E94C7028CE616
:100AA00091E00E94B9028FE691E00E946802609195
:100AB00088017091890180918A0190918B0142E0B7
:100AC0000E94C7028EE791E00E94B90282E191E0A4
:100AD0000E94680268EE73E080E090E00E942901C5
:100AE000E114F10409F471CF0E94C501882309F4CF
:100AF0006CCF0E94000069CFC1E1D7E20E94B5002F
:100B0000019719F42197D1F7BBCFC8E2D0E097E065
:100B1000592E412C01E117E20E94B500892B21F4E6
:100B200001501109C9F7ACCF0E9404014B015C01CF
:100B300001E117E20E94B500019721F4015011096B
:100B4000C9F79ECF0E940401681979098A099B0997
:100B5000693271058105910568F0E42DF0E0EC57EC
:100B6000FE4F80859601052C01C0220F0A94EAF7FA
:100B7000822B8087511024C0439487E0582E219700
:100B800049F660918C0170E090E080E00E9444079B
:100B9000609384017093850180938601909387010F
:100BA00060918E0170E090E080E00E9444076093C5
:100BB00088017093890180938A0190938B0160CFA3
:100BC0005A94DDCFEAE9F1E01382128288EE93E0D5
:100BD000A0E0B0E084839583A683B78384E091E0AE
:100BE0009183808385EC90E09587848784EC90E006
:100BF0009787868780EC90E0918B808B81EC90E0EA
:100C0000938B828B82EC90E0958B848B86EC90E0CA
:100C1000978B868B118E128E138E148E0895A1E2FF
:100C20001A2EAA1BBB1BFD010DC0AA1FBB1FEE1F66
:100C3000FF1FA217B307E407F50720F0A21BB30BB1
:100C4000E40BF50B661F771F881F991F1A9469F72D
:100C500060957095809590959B01AC01BD01CF0189
:100C600008955058BB27AA270E9449060C94BC0738
:100C70000E94AE0738F00E94B50720F039F49F3F7C
:100C800019F426F40C94AB070EF4E095E7FB0C94F2
:100C9000A507E92F0E94CD0758F3BA17620773071B
:100CA0008407950720F079F4A6F50C94EF070EF46D
:100CB000E0950B2EBA2FA02D0B01B90190010C016C
:100CC000CA01A0011124FF27591B99F0593F50F484
:100CD000503E68F11A16F040A22F232F342F4427DC
:100CE000585FF3CF469537952795A795F0405395D4
:100CF000C9F77EF41F16BA0B620B730B840BBAF0A4
:100D00009150A1F0FF0FBB1F661F771F881FC2F70E
:100D10000EC0BA0F621F731F841F48F48795779522
:100D20006795B795F7959E3F08F0B0CF9395880FDC
:100D300008F09927EE0F9795879508950E948107EF
:100D400008F481E008950E94B7060C94BC070E9445
:100D5000B50758F00E94AE0740F029F45F3F29F034
:100D60000C94A50751110C94F0070C94AB070E944A
:100D7000CD0768F39923B1F3552391F3951B550BD8
:100D8000BB27AA2762177307840738F09F5F5F4F5E
:100D9000220F331F441FAA1FA9F335D00E2E3AF09D
:100DA000E0E832D091505040E695001CCAF72BD0B5
:100DB000FE2F29D0660F771F881FBB1F2617370706
:100DC0004807AB07B0E809F0BB0B802DBF01FF2738
:100DD00093585F4F3AF09E3F510578F00C94A50769
:100DE0000C94F0075F3FE4F3983ED4F38695779533
:100DF0006795B795F7959F5FC9F7880F911D9695F1
:100E0000879597F90895E1E0660F771F881FBB1F4C
:100E1000621773078407BA0720F0621B730B840BF9
:100E2000BA0BEE1F88F7E09508950E94D50788F069
:100E30009F5798F0B92F9927B751B0F0E1F0660F9E
:100E4000771F881F991F1AF0BA95C9F714C0B130DF
:100E500091F00E94EF07B1E008950C94EF07672F1F
:100E6000782F8827B85F39F0B93FCCF3869577950E
:100E70006795B395D9F73EF49095809570956195F7
:100E80007F4F8F4F9F4F0895E89409C097FB3EF422
:100E900090958095709561957F4F8F4F9F4F9923C7
:100EA000A9F0F92F96E9BB279395F6958795779545
:100EB0006795B795F111F8CFFAF4BB0F11F460FF05
:100EC0001BC06F5F7F4F8F4F9F4F16C0882311F05D
:100ED00096E911C0772321F09EE8872F762F05C071
:100EE000662371F096E8862F70E060E02AF09A950C
:100EF000660F771F881FDAF7880F9695879597F901
:100F00000895990F0008550FAA0BE0E8FEEF16169A
:100F10001706E807F907C0F012161306E407F507ED
:100F200098F0621B730B840B950B39F40A2661F061
:100F3000232B242B252B21F408950A2609F4A14004
:100F4000A6958FEF811D811D089597F99F6780E811
:100F500070E060E008959FEF80EC089500240A940B
:100F60001616170618060906089500240A94121684
:100F70001306140605060895092E0394000C11F4B7
:100F8000882352F0BB0F40F4BF2B11F460FF04C064
:100F90006F5F7F4F8F4F9F4F089557FD9058440FBD
:100FA000551F59F05F3F71F04795880F97FB991FC8
:100FB00061F09F3F79F08795089512161306140685
:100FC000551FF2CF4695F1DF08C016161706180612
:100FD000991FF1CF86957105610508940895E894ED
:100FE000BB2766277727CB0197F908950E948107D1
:100FF00008F48FEF08950E940E080C94BC070E941D
:10100000AE0738F00E94B50720F0952311F00C943C
:10101000A5070C94AB0711240C94F0070E94CD0790
:1010200070F3959FC1F3950F50E0551F629FF0013B
:10103000729FBB27F00DB11D639FAA27F00DB11D54
:10104000AA1F649F6627B00DA11D661F829F2227DD
:10105000B00DA11D621F739FB00DA11D621F839F64
:10106000A00D611D221F749F3327A00D611D231F3A
:10107000849F600D211D822F762F6A2F11249F5788
:1010800050409AF0F1F088234AF0EE0FFF1FBB1F8B
:10109000661F771F881F91505040A9F79E3F51054A
:1010A00080F00C94A5070C94F0075F3FE4F3983EA2
:1010B000D4F3869577956795B795F795E7959F5FF4
:1010C000C1F7FE2B880F911D9695879597F9089586
:1010D0000E948107880B990B0895EE0FFF1F059062
:0A10E000F491E02D0994F894FFCF7D
:1010EA0000000000FB015B0188014802B901970179
:1010FA00AB010D0A006E616E00696E66006F76665E
:10110A000057656C636F6D6520746F204D6963725B
:10111A006F64696769736F6674210044485431319A
:10112A002048756D696469747920262054656D704C
:10113A00657261747572652053656E736F720A0009
:10114A0048756D6964697479203D20002025005432
:10115A00656D7065726174757265203D200020C2EC
:04116A00B04300008E
:00000001FF
