:020000040000FA
:100000000C948F010C94C0010C94C0010C94C0019D
:100010000C94C0010C94C0010C94C0010C94C0015C
:100020000C94C0010C94C0010C94C0010C94C0014C
:100030000C94C0010C94C0010C94C0010C94C0013C
:100040000C94C0010C94C0010C94C0010C94C0012C
:100050000C94C0010C94C0010C94C0010C94930C3E
:100060000C94C0010C94070D0C94DD0C0C94C00191
:100070000C94C0010C94C0010C94C0010C94C001FC
:100080000C94C0010C94C0010C94C0010C94C001EC
:100090000C94C0010C94C0010C94C0010C943D0D53
:1000A0000C94C0010C94C0010C94C0010C94C001CC
:1000B0000C94C0010C94C0010C94C0010C94C001BC
:1000C0000C94C0010C94C0010C94C0010C94C001AC
:1000D0000C94C0010C94C0010C94C0010C94C0019C
:1000E0000C94C00107634236B79BD8A71A396856EB
:1000F00018AEBAAB558C1D3CB7CC5763BD6DEDFD4A
:10010000753EF6177231BF000000803F0800000006
:10011000BE922449123EABAAAA2ABECDCCCC4C3EFC
:1001200000000080BEABAAAAAA3E00000000BF00EB
:100130000000803F0000000000084178D3BB4387E7
:10014000D1133D190E3CC3BD4282AD2B3E68EC82FB
:1001500076BED98FE1A93E4C80EFFFBE01C4FF7F80
:100160003F00000000000C94F2010C94A2030C94D8
:1001700017020C9425020C94E6010C941B020C94BB
:1001800020020C9413020C9404030C9409020C94A6
:1001900040040C94610E0C94F5010C940D020C9427
:1001A0005C030C94840A0C944F060C94EA010C94A2
:1001B000EE010C94BF060C9448060C9439030C9481
:1001C00003030C94FB010C9435060C949C140C94C2
:1001D000FF010C9426060C9425060C940C030C9439
:1001E000E0010C94EF030C947C060C9421020C9417
:1001F00048030C9405020C946A03000021002400BB
:1002000027002A002D003000330001010000040106
:1002100007010A0100002200250028002B002E0003
:100220003100340002010000050108010B0100004B
:1002300020002300260029002C002F00320000019E
:100240000000030106010901050505050705080869
:100250000808020202020A0A080804040404010150
:100260000101010101010303030303030303040765
:1002700007070C0C0C0C0C0C0C0C020202020606FC
:100280000606060606060B0B0B0B0B0B0B0B0102EF
:100290001020200808102040102040800201020198
:1002A0000804020101020408102040808040201050
:1002B00008040201800402018040201008040201A9
:1002C0000804020101020408102040800102040811
:1002D0001020408000000A0B02090C0D0E080703D5
:1002E0000401000000000000000000000000000009
:1002F00000000000000000000000000000000000FE
:1003000012111000000000000000000000000000BA
:1003100000000000000000000000610E9C14112489
:100320001FBECFEFD1E2DEBFCDBF00E00CBF13E0B8
:10033000A0E0B2E0E2E6F6E300E00BBF02C0079007
:100340000D92A03BB107D9F725E0A0EBB3E001C0C7
:100350001D92AA36B207E1F711E0CEE8D1E000E045
:1003600006C021970109802FFE010E94ED18CD38AB
:10037000D10780E00807A9F70E94020F0C941F1B09
:100380000C9400008150823108F05AC0E82FF0E050
:100390008827E253FE4F8F4F0C94ED18EE01F201C7
:1003A000E001E601EA012002F501FB01FF0105027F
:1003B00009020D021302170220021B02210225026C
:1003C000809180008F7780938000089580918000D5
:1003D0008F7DF9CF80918000877FF5CF84B58F77AF
:1003E00084BD089584B58F7DFBCF8091B0008F7759
:1003F0008093B00008958091B0008F7DF9CF8091F7
:1004000090008F77809390000895809190008F7D69
:10041000F9CF80919000877FF5CF8091A0008F77F2
:100420008093A00008958091A0008F7DF9CF8091E6
:10043000A000877FF5CF809120018F7780932001E6
:100440000895809120018F7DF9CF80912001877FD1
:10045000F5CFCF93DF93E6EDF2E08491E0E9F2E0AF
:10046000D491EAE4F2E0C491CC23A1F081110E947E
:10047000C201EC2FF0E0EE0FFF1FE25DFD4FA591F2
:10048000B491EC91ED2381E090E009F480E0DF91FC
:10049000CF91089580E090E0FACF1F93CF93DF9340
:1004A000282F30E0F901EC52FD4F8491F901E25719
:1004B000FD4FD491F901E85BFD4FC491CC23A9F025
:1004C000162F81110E94C201EC2FF0E0EE0FFF1FEA
:1004D000EC5EFD4FA591B4918FB7F894EC9111119A
:1004E00008C0D095DE23DC938FBFDF91CF911F91A1
:1004F0000895DE2BF8CFCF93DF9390E0FC01E25715
:10050000FD4F2491885B9D4FFC0184918823D1F09D
:1005100090E0880F991FFC01E650FE4FA591B49121
:10052000FC01EC5EFD4FC591D49161110EC09FB7E7
:10053000F8948C91E22FE0958E238C932881E2230E
:10054000E8839FBFDF91CF9108958FB7F894EC9126
:10055000E22BEC938FBFF6CF3FB7F89480911C0449
:1005600090911D04A0911E04B0911F0426B5A89B74
:1005700005C02F3F19F00196A11DB11D3FBFBA2F35
:10058000A92F982F8827BC01CD01620F711D811DF5
:10059000911D42E0660F771F881F991F4A95D1F77A
:1005A00008958F929F92AF92BF92CF92DF92EF9277
:1005B000FF924B015C010E94AC026B017C010E9426
:1005C000AC026C197D098E099F09683E7340810554
:1005D0009105A8F321E0821A9108A108B10888EEDC
:1005E000C80E83E0D81EE11CF11C81149104A10403
:1005F000B10429F7FF90EF90DF90CF90BF90AF90BC
:100600009F908F90089508950895DC01ED91FC91DD
:100610000190F081E02D1994AF92BF92CF92DF92BA
:10062000EF92FF920F931F93CF93DF936C017B01A7
:100630008B01040F151FEB015E01AE18BF08C01738
:10064000D10759F06991D601ED91FC910190F081AB
:10065000E02DC6011995892B79F7C501DF91CF915E
:100660001F910F91FF90EF90DF90CF90BF90AF90D0
:100670000895FC01538D448D252F30E0842F90E0A8
:10068000821B930B541710F0CF960895019708958D
:10069000FC01918D828D981761F0A28DAE0FBF2F56
:1006A000B11D5D968C91928D9F5F9F73928F90E0AC
:1006B00008958FEF9FEF0895FC01918D828D98171B
:1006C00031F0828DE80FF11D858D90E008958FEF58
:1006D0009FEF0895FC01918D228D892F90E0805C21
:1006E0009F4F821B91098F739927089582E994E0A7
:1006F0000E946A0321E0892B09F420E0822F0895EB
:10070000FC01A48DA80FB92FB11DA35ABF4F2C9186
:10071000848D90E001968F739927848FA689B7897D
:100720002C93A089B1898C91837080648C93938D74
:10073000848D981306C00288F389E02D80818F7D17
:1007400080830895EF92FF920F931F93CF93DF93CF
:10075000EC0181E0888F9B8D8C8D98131AC0E889FD
:10076000F989808185FF15C09FB7F894EE89FF89CC
:100770006083E889F98980818370806480839FBF6A
:1007800081E090E0DF91CF911F910F91FF90EF906A
:100790000895F62E0B8D10E00F5F1F4F0F7311277A
:1007A000E02E8C8D8E110CC00FB607FCFACFE889B5
:1007B000F989808185FFF5CFCE010E948003F1CFBA
:1007C000EB8DEC0FFD2FF11DE35AFF4FF0829FB729
:1007D000F8940B8FEA89FB8980818062CFCFCF9319
:1007E000DF93EC01888D8823B9F0AA89BB89E88959
:1007F000F9898C9185FD03C0808186FD0DC00FB6FF
:1008000007FCF7CF8C9185FFF2CF808185FFEDCF7C
:10081000CE010E948003E9CFDF91CF91089580E05F
:1008200090E0892B29F00E94760381110E9400003C
:1008300080E090E0892B49F080E090E0892B29F05E
:100840000E94000081110E94000080E090E0892B4E
:1008500049F080E090E0892B29F00E94000081118E
:100860000E94000080E090E0892B49F080E090E059
:10087000892B29F00E94000081110C94000008953A
:1008800008952091D103260F3327331F21323105DC
:10089000ECF420916804FC0190E080E0243069F0E1
:1008A00082E00895A091D1032191AC014F545C4F97
:1008B000A40FB52FB11D2C930196861798F3809144
:1008C000D103680F6093D10380E0089581E008951B
:1008D0001092680481E0809367041092420461E002
:1008E00084E10E944D0261E085E10E944D02E9EB46
:1008F000F0E080818E7F808380818D7F808388E49B
:100900008093B80085E48093BC000895CF93DF9373
:1009100091E09093B0038823B9F0C091B800D091D2
:10092000BA008091BC008A7B8093BC0060E084E1C7
:100930000E944D0260E085E10E944D020E94680421
:10094000D093BA00C093B800DF91CF9108958F92F1
:100950009F92AF92BF92CF92DF92EF92FF920F934E
:100960001F93CF93DF93D0919104D13208F0D7C079
:10097000182FC09190040E94AC026B017C01809101
:10098000680481116BC082E080936804109367044F
:100990008FEF8093660410926504D0936404A0E7FF
:1009A000B4E0E4E4F4E080E0D81391C01092430492
:1009B00080914304CC0FC82BC09343048091420420
:1009C000813009F088C0109242040E94AC026B0191
:1009D0007C01809143048093BB0080916A049091D4
:1009E0006B04A0916C04B0916D04892B8A2B8B2B26
:1009F000A1F00E94AC0200916A0410916B04209156
:100A00006C0430916D046C197D098E099F090617DD
:100A100017072807390708F442C08091BC0083FDFE
:100A2000D8CF85EC8093BC000E94AC026B017C01A6
:100A300080916804823009F450C0809166048F3F31
:100A400009F46FC080916604803209F46CC0809113
:100A50006604803309F469C084E026C080916A048A
:100A600090916B04A0916C04B0916D04892B8A2B3A
:100A70008B2B09F484CF0E94AC0280906A04909082
:100A80006B04A0906C04B0906D046C197D098E0904
:100A90009F0986169706A806B90608F070CF8091C0
:100AA00069040E94860485E010926F0410929104FC
:100AB00010926E04DF91CF911F910F91FF90EF90F4
:100AC000DF90CF90BF90AF909F908F9008959D91B1
:100AD00091938F5F69CF85EEA5CF80916A04909145
:100AE0006B04A0916C04B0916D04892B8A2B8B2B25
:100AF00009F49ECF0E94AC0200916A0410916B042D
:100B000020916C0430916D046C197D098E099F0948
:100B1000061717072807390708F08ACFC0CF81E0EA
:100B2000C3CF80E0C1CF82E0BFCF83E0BDCFDC0187
:100B300011968D919C91DC01ED91FC910280F381E5
:100B4000E02D41E050E01995019729F481E00E94E1
:100B5000A70491E0811190E0892F08950F931F93CE
:100B6000CF93DF93E1E0F0E02115310511F0E2E0F1
:100B7000F0E0EC01AC81BD81AE17BF0738F1DA01BE
:100B80008B0189819A81488151E050936E04409392
:100B9000900410926F0410929104232B41F4B80139
:100BA000CE01DF91CF911F910F910C949705109773
:100BB000B1F3FC0120813181F9012281338141E0CF
:100BC00050E0BD01F9011995019749F380E0DF91EB
:100BD000CF911F910F910895CF93DF93EC018B81FB
:100BE0008823A1F0888191E090936E048093900413
:100BF00010926F041092910481E00E94A70491E08A
:100C0000811190E0892FDF91CF91089510922104F6
:100C10001092200410926F04109291040E946804B4
:100C200083E093E09093F5038093F40384E093E0F2
:100C30009093F7038093F60381E08B83CE010E94AB
:100C4000EC05982F8111CECFDDCF0895E0912104DE
:100C500080912004E81730F4F0E0EE5DFB4F8081D6
:100C600090E008958FEF9FEF089590912104809177
:100C700020042FEF3FEF981748F4E92FF0E0EE5DE6
:100C8000FB4F208130E09F5F90932104C9010895BC
:100C90008091200490912104891B990B0895CF9293
:100CA000DF92EF92FF920F931F93CF93DF937C011C
:100CB000CB018A0120916E04222389F0EB016B01A4
:100CC000C40ED51ECC15DD0569F06991D701ED91F3
:100CD000FC910190F081E02DC7011995F3CF642FAD
:100CE0000E944104C801DF91CF911F910F91FF90A5
:100CF000EF90DF90CF900895CF93DF931F92CDB701
:100D0000DEB7698320916E042223F9F020919104CB
:100D1000203258F021E030E0FC013383228390E060
:100D200080E00F90DF91CF91089580916F04E82FBC
:100D3000F0E0E059FB4F998190838F5F80936F04BF
:100D40008093910481E090E0ECCF61E0CE010196C8
:100D50000E944104F7CFFC01248131E030936E04FE
:100D60002093900410926F04109291048385682B55
:100D70008FE295E00E947C0681E00C94A70490E04D
:100D800080E008952F923F924F925F926F927F92F0
:100D90008F929F92AF92BF92CF92DF92EF92FF928B
:100DA0000F931F93CF93DF93DC011496ED91FC9189
:100DB0001597EF2B09F422C169012A01EC01888102
:100DC00091E090936E048093900410926F041092BF
:100DD0009104CD010E949705782E882309F40EC155
:100DE000F12CE12C332433948C819D8186010E19E2
:100DF0001F098017910708F48C0128800E94AC021B
:100E00004B015C0180916804811173C0602EB0E2D7
:100E1000B01710F480E2682E3092680421E0C60119
:100E2000801B910BE816F90608F420E02093670474
:100E3000EFEFE0936604109265048FEF860D8093C8
:100E400064043092430480914304220C282A2092A7
:100E5000430480914204813009F090C01092420412
:100E60000E94AC024B015C01809143048093BB0063
:100E700080916A0490916B04A0916C04B0916D0410
:100E8000892B8A2B8B2BA1F00E94AC0220916A0443
:100E900030916B0440916C0450916D04681979098C
:100EA0008A099B09261737074807590708F442C0E3
:100EB0008091BC0083FDD8CFF5ECF093BC000E947C
:100EC000AC024B015C0180916804813009F45AC086
:100ED00080916504861510F460906504A4E4B4E084
:100EE000E2E2F4E080E0861551F19D9191938F5FED
:100EF000FACF80916A0490916B04A0916C04B09138
:100F00006D04892B8A2B8B2B09F47CCF0E94AC02B9
:100F100020916A0430916B0440916C0450916D04EF
:100F2000681979098A099B0926173707480759075D
:100F300008F068CF809169040E948604612C1092A9
:100F40002104609220046016110609F057C0420186
:100F50008E0C9F1C5401C5018819990980179107AF
:100F600098F589819A81DC01ED91FC910284F385E9
:100F7000E02D1995F50181935F01EDCF85EE80930A
:100F8000BC009DCF80916A0490916B04A0916C0489
:100F9000B0916D04892B8A2B8B2B09F494CF0E947E
:100FA000AC0220916A0430916B0440916C04509122
:100FB0006D04681979098A099B09261737074807BC
:100FC000590708F080CFB6CFE00EF11EEC14FD04F7
:100FD00008F40ACF872DDF91CF911F910F91FF90D9
:100FE000EF90DF90CF90BF90AF909F908F907F90C9
:100FF0006F905F904F903F902F900895712CEACFA3
:10100000CF93DF9300D0CDB7DEB78B8322E030E003
:10101000AE014F5F5F4FBE016D5F7F4F8091410515
:10102000909142050E94C20689819A81982789275A
:1010300098270F900F900F90DF91CF910895CF9345
:10104000DF931F921F92CDB7DEB78EE28A8384EFC3
:10105000898321E030E0AE014F5F5F4FBE016E5FDC
:101060007F4F80914105909142050E94AE0565E059
:1010700070E080E090E00E94D10286EF0E940008BC
:101080000F900F90DF91CF9108954F925F926F92E2
:101090007F928F929F92AF92BF92CF92DF92EF9208
:1010A000FF921F93CF93DF9300D000D01F921F9227
:1010B000CDB7DEB70E941F084C01B12CA12C809146
:1010C00043058295880F880F807C8C5C8C8384EF2D
:1010D0008B8321E030E0AE014D5F5F4FBE016C5F5E
:1010E0007F4F80914105909142050E94AE0580910D
:1010F000430581117DC165E070E080E090E00E94D1
:10110000D10286EF0E940008B0E0A0E0CC24D82EE7
:10111000E92EFA2E88EF8A8321E030E0AE014F5F9E
:101120005F4FBE016E5F7F4F8091410590914205F8
:101130000E94C2068981C82A1091430580915805F2
:1011400090915905A5019401281B390B41095109BA
:10115000A0915605B09157050E94E8152B013C015E
:10116000AFE07594679457944794AA95D1F760912E
:10117000500570915105072E000C880B990BBBE0B0
:10118000660F771F881F991FBA95D1F720915205D6
:1011900030915305032E000C440B550B240D351DC7
:1011A000461D571D0E94C915420E531E641E751E12
:1011B00020EA421A2FE0520A61087108A301920145
:1011C000C301B2010E94C9184B015C018CE0B594C7
:1011D000A794979487948A95D1F7A0914805B091E8
:1011E00049050E94F3159B01AC019DE0559547957B
:1011F000379527959A95D1F72D833E834F8358874E
:10120000A0914A05B0914B05A50194010E94F315E8
:101210009C01552737FD5095452F8D819E81AF81CB
:10122000B885280F391F4A1F5B1F2E5F3F4F4F4F56
:101230005F4F62E055954795379527956A95D1F7A9
:1012400030584F4F5F4FA0915405B09155050E9403
:10125000E8159B01AC017FE056954795379527959A
:101260007A95D1F72D833E834F83588788E090E0AD
:10127000811B910904C0F694E794D794C7948A958A
:10128000D2F7A0914C05B0914D05A50194010E94A3
:10129000F3154B015C01EBE0B594A7949794879408
:1012A000EA95D1F7A0914605B0914705A3019201B7
:1012B0000E94F315FBE09595879577956795FA95CC
:1012C000D1F7680D791D8A1D9B1D80904405909073
:1012D0004505092C000CAA08BB08A2E0880C991C43
:1012E000AA1CBB1CAA95D1F7680D791D8A1D9B1DF0
:1012F000012E04C0660F771F881F991F0A94D2F72A
:101300006E5F7F4F8F4F9F4F24E030E040E050E012
:101310000E94C915D701C601821B930BA40BB50B04
:101320009C01AD0160E573EC80E090E004C096950F
:101330008795779567951A95D2F70E94C91897FDFA
:101340006AC0660F771F881F991F2D813E814F81CC
:1013500058850E94FB1569017A019927F7FC9A9537
:101360008F2D7E2D6D2D9B01AC010E94C9189B0114
:10137000AC01AEEDBBE00E94E8154B015C01A3E4BB
:10138000B3EEA70196010E94F615BC01992777FDDF
:101390009095892F4501BB2497FCB094AB2C680D28
:1013A000791D8A1D9B1D6153714F8F4F9F4F44E0E4
:1013B00095958795779567954A95D1F76C0D7D1D25
:1013C0008E1D9F1D28960FB6F894DEBF0FBECDBFB1
:1013D000DF91CF911F91FF90EF90DF90CF90BF9062
:1013E000AF909F908F907F906F905F904F900895F7
:1013F000813029F468E070E080E090E080CE8230B7
:1014000029F46EE070E080E090E079CE6AE170E06F
:1014100080E090E074CE2D813E814F8158850E94FE
:10142000FB1569017A01CC0CDD1CEE1CFF1C95CF6D
:101430000F931F93CF938C01C62F0E94AB066C2F86
:101440006460C8010E94AB066C2F6B7FC8010E94CC
:10145000AB0683EC90E00197F1F7CF911F910F91CC
:1014600008950F931F93CF93DF938C01D62FC42F32
:10147000607F642B0E94180A80E1D89FB00111247C
:101480006C2BC801DF91CF911F910F910C94180A1A
:10149000CF93DF9300D000D01F921F92CDB7DEB75D
:1014A00098E0E6E0F2E0DE01119601900D929A9547
:1014B000E1F790916205961708F46FEF262F30E060
:1014C000220F331F41E050E04C0F5D1F240F351FEA
:1014D000F9016081680F606840E08AE595E0289630
:1014E0000FB6F894DEBF0FBECDBFDF91CF910C9445
:1014F000310A40E061E08AE595E00E94310A8BE321
:101500009FE10197F1F7089541E00E94310A81E0DF
:1015100090E00895FB0101900020E9F73197AF01B9
:10152000461B570BDC01ED91FC910280F381E02D0D
:1015300019948F929F92AF92BF92EF92FF920F9366
:101540001F93CF93DF93CDB7DEB7A1970FB6F89473
:10155000DEBF0FBECDBF7C01FA01CB0119A2223044
:1015600008F42AE08E010F5D1F4F822E912CB12CC2
:10157000A12CBF01A50194010E94FB15F901CA012C
:101580006A300CF5605DD8016E938D01232B242BFE
:10159000252B79F790E080E0109721F0BD01C7017D
:1015A0000E948A0AA1960FB6F894DEBF0FBECDBF87
:1015B000DF91CF911F910F91FF90EF90BF90AF906F
:1015C0009F908F900895695CDECFCF93DF93BC012D
:1015D00082E994E00E948A0AEC016EE372E082E9FB
:1015E00094E00E948A0A8C0F9D1FDF91CF9108958D
:1015F0002F923F924F925F926F927F928F929F9223
:10160000AF92BF92CF92DF92EF92FF921F93CF9350
:10161000DF93EC016A017B01722EAB019601CB01D5
:10162000B6010E948F1761E472E0811126C0460165
:101630005701E894B7F82FEF3FEF4FE75FE7C50199
:10164000B4010E948F1781110CC02FEF3FEF4FE7BD
:101650005FE7C501B4010E94A51465E472E01816A5
:1016600064F02FEF3FEF4FE75FE4C701B6010E9440
:101670003A171816B4F469E472E0CE01DF91CF9105
:101680001F91FF90EF90DF90CF90BF90AF909F9011
:101690008F907F906F905F904F903F902F900C9421
:1016A0008A0A2FEF3FEF4FE75FECC701B6010E94B8
:1016B000A51487FDE0CF20E030E0A901C701B60105
:1016C0000E94A514312C212C87FF09C06DE2CE01A8
:1016D0000E9405031C01F7FAF094F7F8F09410E06B
:1016E00060E070E080E09FE3711641F020E030E0C0
:1016F00040E251E40E9499161F5FF6CFA7019601C0
:101700000E942D162B013C010E940B174B015C011E
:101710002AE0BC01A401CE010E94990A7C01E20CDE
:10172000F31C1123C1F1C501B4010E94AA149B014D
:10173000AC01C301B2010E942C164B015C016EE2A8
:10174000CE010E940503E80EF91E115020F120E0A1
:1017500030E040E251E4C501B4010E940B152B01B9
:101760003C010E940B174B01B12CA12C2AE0B501C2
:10177000A401CE010E94990AE80EF91EC501B40128
:101780000E94AA149B01AC01C301B2010E942C1655
:101790004B015C01DACFC701DF91CF911F91FF9020
:1017A000EF90DF90CF90BF90AF909F908F907F9001
:1017B0006F905F904F903F902F900895CF93DF935D
:1017C000AB01BC0122E082E994E00E94F80AEC013E
:1017D0006EE372E082E994E00E948A0A8C0F9D1FFA
:1017E000DF91CF9108950C948A0ACF93DF93EC0197
:1017F00080913B0590913C05009759F020913D0563
:1018000030913E052C173D0720F081E0DF91CF910C
:101810000895BE016F5F7F4F0E942E1A009789F0D6
:1018200090933C0580933B05D0933E05C0933D05C6
:1018300020913F0530914005232B39F7FC011082A0
:10184000E4CF80E0E3CF0F931F93CF93DF938C011E
:10185000EC0109900020E9F72197C81BD90BCE01B4
:101860000E94F50B20913B0530913C05811117C07A
:101870002115310519F0C9010E94A51910923C05E6
:1018800010923B051092400510923F0510923E05C4
:1018900010923D05DF91CF911F910F910895D09344
:1018A0004005C0933F05B801C901DF91CF911F9159
:1018B0000F910C94181B85ED8093BC0080916A04F5
:1018C00090916B04A0916C04B0916D040796A11DDA
:1018D000B11D23E0B695A795979587952A95D1F7E1
:1018E0002091BC0024FD03C010926804089540912B
:1018F0006A0450916B0460916C0470916D04452BE7
:10190000462B472B69F30097A105B10541F02AE268
:101910002A95F1F700C00197A109B109E1CF8091A3
:1019200069040C9486041F920F920FB60F92112433
:101930002F933F938F939F93AF93BF9380911804FE
:1019400090911904A0911A04B0911B0430911704CE
:1019500023E0230F2D3758F50196A11DB11D2093CB
:1019600017048093180490931904A0931A04B09359
:101970001B0480911C0490911D04A0911E04B09141
:101980001F040196A11DB11D80931C0490931D049A
:10199000A0931E04B0931F04BF91AF919F918F91AC
:1019A0003F912F910F900FBE0F901F90189526E832
:1019B000230F0296A11DB11DD2CF1F920F920FB619
:1019C0000F9211240BB60F922F933F934F935F9377
:1019D0006F937F938F939F93AF93BF93EF93FF93F7
:1019E00082E994E00E948003FF91EF91BF91AF9153
:1019F0009F918F917F916F915F914F913F912F9127
:101A00000F900BBE0F900FBE0F901F9018951F9256
:101A10000F920FB60F9211240BB60F922F938F9344
:101A20009F93EF93FF93E091A204F091A304808130
:101A3000E091A804F091A90482FD1DC090818091DD
:101A4000AB048F5F8F732091AC04821741F0E0915B
:101A5000AB04F0E0EE56FB4F958F8093AB04FF9103
:101A6000EF919F918F912F910F900BBE0F900FBE12
:101A70000F901F9018958081F2CF1F920F920FB692
:101A80000F9211240BB60F922F933F934F935F93B6
:101A90006F937F938F939F93AF93BF93EF93FF9336
:101AA0008091B900887F803609F44DC008F040C0AD
:101AB000883209F4A9C028F5803109F49DC0C8F422
:101AC000882309F4FBC0883009F496C0FF91EF9198
:101AD000BF91AF919F918F917F916F915F914F9146
:101AE0003F912F910F900BBE0F900FBE0F901F9044
:101AF0001895883109F488C0803241F780936604D4
:101B000014C0803409F49DC040F48033B9F38833A5
:101B1000E9F68093660485ECB0C0803509F485C091
:101B2000883509F496C0883489F60E945B0CCECFC4
:101B3000883909F48CC038F5883729F050F4883694
:101B400011F0803719F683E0809368041092F30354
:101B500057C0883809F47BC0803919F0803809F003
:101B6000B5CF8091F303803208F071C0E091F303A8
:101B700081E08E0F8093F3038091BB00F0E0ED5283
:101B8000FC4F80833DC0803B39F0E0F4803A09F49B
:101B900079C0883A09F09ACF84E080936804109263
:101BA000D2031092D103E091F403F091F50319955B
:101BB0008091D10381110FC081E08093D1031092F5
:101BC000B10309C0803C09F4A6CF883C09F4A3CF37
:101BD000883B09F07BCFE091D20381E08E0F8093A8
:101BE000D203F0E0EF54FC4F80818093BB009091D2
:101BF000D2038091D10329C0809143048093BB001C
:101C000085EC8093BC0062CF909165048091640460
:101C1000981758F5E091650481E08E0F8093650474
:101C2000F0E0EC5BFB4F8081E9CFE091650481E05F
:101C30008E0F809365048091BB00F0E0EC5BFB4F5E
:101C4000808390916504809164049817C8F285E8B8
:101C5000D8CFE091650481E08E0F80936504809178
:101C6000BB00F0E0EC5BFB4F808380916704811147
:101C70005CCF81E08093420484EA8093BC001092A0
:101C8000680424CF85EC8093BC0010926804809196
:101C9000F303803230F4E091F303F0E0ED52FC4FB7
:101CA00010826091F30370E0E091F603F091F70386
:101CB00083ED93E019951092F30308CF1092660418
:101CC00034CF109295041092940488EE93E0A0E033
:101CD000B0E08093960490939704A0939804B093F7
:101CE000990422E132E0309393042093920425EC8E
:101CF00030E030939F0420939E0424EC30E0309336
:101D0000A1042093A00420EC30E03093A30420939E
:101D1000A20421EC30E03093A5042093A40422EC2B
:101D200030E03093A7042093A60426EC30E03093F3
:101D3000A9042093A8041092AB041092AC04109252
:101D4000AD041092AE0410923205109231058093CA
:101D5000330590933405A0933505B093360584E29E
:101D600092E09093300580932F0510925D051092BC
:101D70005C0586E392E090935B0580935A0580E2D0
:101D800080935E0580E18093630582E08093640523
:101D900010926505109242051092410510923C0583
:101DA00010923B0510923E0510923D0510924005A1
:101DB00010923F0587E090E00E94F50B20913B05D3
:101DC00030913C05811113C02115310519F0C9016D
:101DD0000E94A51910923C0510923B0510924005F7
:101DE00010923F0510923E0510923D05089587E040
:101DF00090E09093400580933F056DE472E0C90147
:101E00000C94181BCF93DF931F921F92CDB7DEB7B0
:101E1000789484B5826084BD84B5816084BD85B5C5
:101E2000826085BD85B5816085BD80916E008160D1
:101E300080936E0010928100809181008260809377
:101E40008100809181008160809381008091800079
:101E50008160809380008091B10084608093B100A4
:101E60008091B00081608093B00080919100826089
:101E70008093910080919100816080939100809186
:101E800090008160809390008091A1008260809397
:101E9000A1008091A10081608093A1008091A000A9
:101EA00081608093A0008091210182608093210154
:101EB00080912101816080932101809120018160C6
:101EC0008093200180917A00846080937A008091D1
:101ED0007A00826080937A0080917A00816080939A
:101EE0007A0080917A00806880937A001092C10015
:101EF000E091A204F091A304A2E0FA2EF082E09116
:101F00009E04F0919F041082E091A004F091A1043E
:101F10008FEC80831092AA04E091A604F091A704AC
:101F200086E08083E091A404F091A5048081806123
:101F30008083E091A404F091A5048081886080836F
:101F4000E091A404F091A504808180688083E091F1
:101F5000A404F091A50480818F7D808380915F052A
:101F6000886080935F05F092620562E370E080E034
:101F700090E00E94D102609165058AE595E00E949B
:101F8000AB0668EE73E080E090E00E94D10260E36F
:101F90008AE595E00E94180A0BE416E4C80101974F
:101FA000F1F760E38AE595E00E94180AC8010197FD
:101FB000F1F760E38AE595E00E94180A83E592E074
:101FC0000197F1F760E28AE595E00E94180A6091B6
:101FD0005F05606240E08AE595E00E94310A84E096
:101FE0008093600540E06CE08AE595E00E94310A4C
:101FF0000E94790AF092610540E066E08AE595E08A
:102000000E94310A40E062E08AE595E00E94310AD0
:102010008BE39FE10197F1F788E08093650560E02D
:102020008AE595E00E94AB0660E084E00E94480AE1
:1020300065E572E08AE595E00E94F30B61E080E0DF
:102040000E94480A6CE572E08AE595E00E94F30B75
:1020500068EE73E080E090E00E94D1020E94790A6D
:1020600083E080934305809141059091420500975C
:1020700011F00E94A51986E090E00E9409198C01D8
:1020800087E7F80180838FE295E092838183138252
:1020900080E290E09583848310934205009341058C
:1020A000109221041092200410926F041092910457
:1020B0000E94680483E093E09093F5038093F40317
:1020C00084E093E09093F7038093F60381E0F801B6
:1020D0008383C8010E94EC05882309F4E6C080EDE3
:1020E0008A8321E030E0AE014F5F5F4FBE016E5F3B
:1020F0007F4F80914105909142050E94C2068981DF
:10210000853509F0D2C08AEA0E94000890934505FF
:10211000809344058CEA0E940008909347058093C1
:1021200046058EEA0E940008909349058093480571
:1021300080EB0E940008909355058093540582EB34
:102140000E940008909357058093560584EB0E94E7
:102150000008909359058093580586EB0E9400086B
:1021600090934B0580934A0588EB0E94000890935A
:102170004D0580934C058AEB0E94000890934F0513
:1021800080934E058CEB0E9400089093510580933C
:1021900050058EEB0E9400089093530580935205E2
:1021A00061E085E00E947B0261E086E00E947B02A4
:1021B00061E087E00E947B02EAE02E2E312C109233
:1021C0001204109213041092140410921504109229
:1021D000160461E082E00E947B0260E082E00E94DF
:1021E0004D0264E170E080E090E00E94D10261E085
:1021F00082E00E944D028BE990E00197F1F760E0E8
:1022000082E00E947B0201E117E20E942902892BF1
:1022100009F05AC001501109C1F760910A04709188
:102220000B0480910C0490910D046093060470934C
:1022300007048093080490930904C0900E04D09082
:102240000F04E0901004F0901104C0920204D092A8
:102250000304E0920404F09205049B01AC010E9487
:102260008F17811109C0A7019601C701B6010E940D
:102270008F17882309F498C085E992E00E94E50A47
:102280000E94790A60E080E00E94480A65EB72E0F3
:102290008AE595E00E94F30B68EE73E080E090E041
:1022A0000E94D1020E940F048ACF8EE692E00E9423
:1022B000E50A60E080E00E94480A67E872E08AE58B
:1022C00095E00E94F30BFFCF01E117E20E94290283
:1022D000019721F401501109C9F79FCF78E2E72E49
:1022E000F12C17E000E061E1C62E67E2D62E0E94D5
:1022F0002902892B29F4F1E0CF1AD108C1F78DCF3B
:102300000E94AC024B015C0151E1C52E57E2D52E73
:102310000E942902019729F481E0C81AD108C1F767
:102320007CCF0E94AC02681979098A099B0969323D
:1023300071058105910570F0E02FF0E0E65FFB4F3D
:10234000808521E030E0012E01C0220F0A94EAF7D7
:10235000822B8087111126C00F5F17E0E1E0EE1A93
:10236000F10809F0C0CF6091120470E090E080E0C5
:102370000E94AA1460930A0470930B0480930C04C7
:1023800090930D046091140470E090E080E00E944E
:10239000AA1460930E0470930F048093100490931A
:1023A00011043BCF1150DACF0E941F089C0150E06E
:1023B00040E08091580590915905281B390B41093F
:1023C0005109A0915605B09157050E94E8156B017F
:1023D0007C018FE0F594E794D794C7948A95D1F760
:1023E0006091500570915105072E000C880B990BD8
:1023F0002BE0660F771F881F991F2A95D1F7209130
:10240000520530915305032E000C440B550B2C0D37
:102410003D1D4E1D5F1D0E94C915CA01B9016C0DFD
:102420007D1D8E1D9F1D685F7F4F8F4F9F4F34E036
:1024300095958795779567953A95D1F70E94AC1455
:1024400020E030E040E251E40E9499166B017C01EB
:102450000E9445080E94AC1420E030E048EC52E4B1
:102460000E9499166093FE037093FF03809300040B
:10247000909301040E9445080E94AC1420E836EEB7
:1024800045EC57E40E94991621E03EED42E45EE3FC
:102490000E943F179B01AC0160E070E080E89FE381
:1024A0000E942C1620E03AE24DE257E40E940B1500
:1024B0006093FA037093FB038093FC039093FD03F6
:1024C0004AE0A42EB12C10E000E080917B00877FD1
:1024D00080937B00F0E4F0937C0080917A0080642C
:1024E00080937A0080917A0086FDFCCF80917800FD
:1024F00090917900080F191F65E070E080E090E08E
:102500000E94D10281E0A81AB108F9F6C801B10110
:102510000E94D9188B017093F9036093F80387EC3C
:1025200092E06935E2E07E073CF482ED92E06D32A4
:10253000714014F48DE492E00E94230C4090060454
:1025400050900704609008047090090420E030E087
:102550004AEA52E4C301B2010E943A1718163CF14C
:102560008090020490900304A0900404B0900504AD
:1025700020E030E04CE052E4C501B4010E943A177B
:102580001816ACF020E030E44AE355E46091FE0315
:102590007091FF0380910004909101040E943A170A
:1025A00018162CF009328AE018070CF484C161E097
:1025B00085E00E944D0260E086E00E944D0260E0EE
:1025C00087E00E944D020E94790A60E080E00E944C
:1025D000480A6DED72E08AE595E00E94F30B8FE00A
:1025E00093E00E94E50A68E273E082E994E00E94C9
:1025F000F30B609106047091070480910804909198
:1026000009040E94DE0B63E373E082E994E00E9418
:10261000F30B609102047091030480910404909183
:1026200005040E94DE0B6EE373E082E994E00E94F1
:10263000F30BC701B6010E94DE0B6CE473E082E984
:1026400094E00E94F30B6091FE037091FF03809170
:102650000004909101040E94DE0B67E573E082E9BB
:1026600094E00E94F30B6091FA037091FB03809158
:10267000FC039091FD030E94DE0B62E673E082E9A9
:1026800094E00E94F30B8090F8039090F903092CDA
:10269000000CAA08BB082AE0B501A401B7FE0DC0D2
:1026A0006DE282E994E00E94050344275527BA01B0
:1026B000481959096A097B092AE082E994E00E94D5
:1026C000990A6FE673E082E994E00E94F30B40916F
:1026D0003F055091400560913B0570913C0582E9B2
:1026E00094E00E940C036EE372E082E994E00E94A1
:1026F0008A0A83E793E00E94E50A0E94790A60E073
:1027000080E00E94480A68E273E08AE595E00E9452
:10271000F30B4091060450910704609108047091F6
:10272000090422E08AE595E00E94F80A60E973E076
:102730008AE595E00E94F30B68EE73E080E090E09C
:102740000E94D1020E94790A60E080E00E94480A5B
:1027500063E373E08AE595E00E94F30B4091020485
:1027600050910304609104047091050422E08AE50D
:1027700095E00E94F80A6FED8AE595E00E94050356
:1027800063E973E08AE595E00E94F30B68EE73E07D
:1027900080E090E00E94D1020E94790A60E080E02F
:1027A0000E94480A65E973E08AE595E00E94F30B10
:1027B00022E0B701A6018AE595E00E94F80A6FEDD4
:1027C0008AE595E00E94050363E973E08AE595E0F8
:1027D0000E94F30B68EE73E080E090E00E94D1026B
:1027E0000E94790A60E080E00E94480A6CE473E08D
:1027F0008AE595E00E94F30B4091FE035091FF03A0
:10280000609100047091010422E08AE595E00E9445
:10281000F80A60EA73E08AE595E00E94F30B68EE3F
:1028200073E080E090E00E94D1020E94790A60E0AB
:1028300080E00E94480A67E573E08AE595E00E941F
:10284000F30B4091FA035091FB036091FC037091EC
:10285000FD0322E08AE595E00E94F80A65EA73E04C
:102860008AE595E00E94F30B68EE73E080E090E06B
:102870000E94D1020E94790A60E080E00E94480A2A
:1028800068EA73E08AE595E00E94F30B40913F050A
:102890005091400560913B0570913C058AE595E0BB
:1028A0000E940C0368EE73E080E090E00E94D10289
:1028B0000E94790AF1CC0D321140A4F420E030E0FE
:1028C00040E752E4C301B2010E943A17181654F0CF
:1028D00020E030E040EF51E4C501B4010E943A1716
:1028E0001816ACF460E085E00E944D0261E086E0DD
:1028F0000E944D0260E087E00E944D020E94790A2A
:1029000060E080E00E94480A63EF72E064CE60E01D
:1029100085E00E944D0260E086E00E944D0261E089
:1029200087E00E944D020E94790A60E080E00E94E8
:10293000480A65E073E04FCE80913B0590913C05DD
:10294000009711F00C94A51908950E94E71408F45B
:1029500081E00895E89409C097FB3EF49095809536
:10296000709561957F4F8F4F9F4F9923A9F0F92F55
:1029700096E9BB279395F695879577956795B795D3
:10298000F111F8CFFAF4BB0F11F460FF1BC06F5FB9
:102990007F4F8F4F9F4F16C0882311F096E911C0CB
:1029A000772321F09EE8872F762F05C0662371F0EC
:1029B00096E8862F70E060E02AF09A95660F771F00
:1029C000881FDAF7880F9695879597F90895990FDC
:1029D0000008550FAA0BE0E8FEEF16161706E807E9
:1029E000F907C0F012161306E407F50798F0621B0A
:1029F000730B840B950B39F40A2661F0232B242BDF
:102A0000252B21F408950A2609F4A140A6958FEFFD
:102A1000811D811D08950E941E150C948F150E9422
:102A2000811538F00E94881520F0952311F00C9440
:102A300078150C947E1511240C94C3150E94A015D2
:102A400070F3959FC1F3950F50E0551F629FF00101
:102A5000729FBB27F00DB11D639FAA27F00DB11D1A
:102A6000AA1F649F6627B00DA11D661F829F2227A3
:102A7000B00DA11D621F739FB00DA11D621F839F2A
:102A8000A00D611D221F749F3327A00D611D231F00
:102A9000849F600D211D822F762F6A2F11249F574E
:102AA00050409AF0F1F088234AF0EE0FFF1FBB1F51
:102AB000661F771F881F91505040A9F79E3F510510
:102AC00080F00C9478150C94C3155F3FE4F3983EA6
:102AD000D4F3869577956795B795F795E7959F5FBA
:102AE000C1F7FE2B880F911D9695879597F908954C
:102AF00097F99F6780E870E060E008959FEF80ECB1
:102B0000089500240A941616170618060906089553
:102B100000240A9412161306140605060895092EB9
:102B20000394000C11F4882352F0BB0F40F4BF2B28
:102B300011F460FF04C06F5F7F4F8F4F9F4F089568
:102B400057FD9058440F551F59F05F3F71F047955E
:102B5000880F97FB991F61F09F3F79F08795089543
:102B6000121613061406551FF2CF4695F1DF08C062
:102B7000161617061806991FF1CF8695710561057F
:102B800008940895E894BB2766277727CB0197F927
:102B90000895052E97FB1EF400940E94E01557FD42
:102BA00007D00E94FB1507FC03D04EF40C94E015EF
:102BB00050954095309521953F4F4F4F5F4F089569
:102BC00090958095709561957F4F8F4F9F4F089599
:102BD0000E941D16A59F900DB49F900DA49F800D7F
:102BE000911D11240895B7FF0C94E8150E94E81573
:102BF000821B930B0895A1E21A2EAA1BBB1BFD0199
:102C00000DC0AA1FBB1FEE1FFF1FA217B307E407CB
:102C1000F50720F0A21BB30BE40BF50B661F771F23
:102C2000881F991F1A9469F7609570958095909503
:102C30009B01AC01BD01CF010895A29FB001B39FDC
:102C4000C001A39F700D811D1124911DB29F700DB5
:102C5000811D1124911D08955058BB27AA270E9459
:102C600044160C948F150E94811538F00E94881527
:102C700020F039F49F3F19F426F40C947E150EF4DD
:102C8000E095E7FB0C947815E92F0E94A01558F306
:102C9000BA17620773078407950720F079F4A6F541
:102CA0000C94C2150EF4E0950B2EBA2FA02D0B013B
:102CB000B90190010C01CA01A0011124FF27591B81
:102CC00099F0593F50F4503E68F11A16F040A22F87
:102CD000232F342F4427585FF3CF469537952795F8
:102CE000A795F0405395C9F77EF41F16BA0B620BF7
:102CF000730B840BBAF09150A1F0FF0FBB1F661F3E
:102D0000771F881FC2F70EC0BA0F621F731F841F80
:102D100048F4879577956795B795F7959E3F08F0A6
:102D2000B0CF9395880F08F09927EE0F9795879568
:102D300008950E94AD160C948F150E94881558F0C6
:102D40000E94811540F029F45F3F29F00C9478151A
:102D500051110C94C3150C947E150E94A01568F3B4
:102D60009923B1F3552391F3951B550BBB27AA2744
:102D700062177307840738F09F5F5F4F220F331F7E
:102D8000441FAA1FA9F335D00E2E3AF0E0E832D046
:102D900091505040E695001CCAF72BD0FE2F29D049
:102DA000660F771F881FBB1F261737074807AB071B
:102DB000B0E809F0BB0B802DBF01FF2793585F4F90
:102DC0003AF09E3F510578F00C9478150C94C31599
:102DD0005F3FE4F3983ED4F3869577956795B79572
:102DE000F7959F5FC9F7880F911D9695879597F97D
:102DF0000895E1E0660F771F881FBB1F62177307F6
:102E00008407BA0720F0621B730B840BBA0BEE1F0A
:102E100088F7E09508950E94A81588F09F5798F0CC
:102E2000B92F9927B751B0F0E1F0660F771F881FCF
:102E3000991F1AF0BA95C9F714C0B13091F00E94E9
:102E4000C215B1E008950C94C215672F782F88271A
:102E5000B85F39F0B93FCCF3869577956795B39510
:102E6000D9F73EF490958095709561957F4F8F4F7F
:102E70009F4F08950E94E71408F48FEF0895FA0118
:102E8000EE0FFF1F309621053105A1F16115710587
:102E900061F48038BFE39B0749F16894903881055D
:102EA00061F08038BFEF9B0741F099234AF5FF3F5F
:102EB000E1053105210519F1E8940894E795D90158
:102EC000AA2329F4AB2FBE2FF85FD0F310C0FF5F09
:102ED00070F4A695E0F7F73950F019F0FF3A38F49E
:102EE0009F779F930DD00F9007FC9058089546F060
:102EF0000C947E1560E070E080E89FE308954FE752
:102F00009F775F934F933F932F930E943F182F918A
:102F10003F914F915F910E940B150C949C170E945A
:102F2000E714880B990B089529F416F00C94781582
:102F30000C94C2150C947E150E94A815A8F396381F
:102F4000A0F707F80F92E8942BE33AEA48EB5FE723
:102F50000E9421150F920F920F924DB75EB70F92FC
:102F60000E948718E4EEF0E00E94CE174F915F9127
:102F7000EF91FF91E595EE1FFF1F49F0FE57E068C6
:102F80004427EE0F441FFA95E1F74195550B0E9437
:102F900001180F9007FE0C94F5170895DF93CF9357
:102FA0001F930F93FF92EF92DF927B018C01689445
:102FB00006C0DA2EEF010E941E15FE01E894A591CD
:102FC0002591359145915591A6F3EF010E94441644
:102FD000FE019701A801DA9469F7DF90EF90FF9066
:102FE0000F911F91CF91DF9108959B01AC0160E09B
:102FF00070E080E89FE30C9499160C9478150C947B
:10300000BB180E94A815D8F39923C9F3940F511D3A
:10301000A3F39150504094F059F0882332F0660F9A
:10302000771F881F91505040C1F79E3F51052CF7E4
:10303000880F911D9695879597F908955F3FACF09D
:10304000983E9CF0BB27869577956795B79508F4D1
:10305000B1609395C1F7BB0F58F711F460FFE8CF4B
:103060006F5F7F4F8F4F9F4FE3CF0C94C31516F0C8
:103070000C94BB180C947E1568940C9478150E94DF
:10308000A815A8F39923C1F3AEF3DF93CF931F9351
:103090000F93FF92C92FDD2788232AF02197660F0F
:1030A000771F881FDAF720E030E040E85FEB9FE30E
:1030B000883920F0803E38F021968F770E942D16B7
:1030C000ECE0F1E004C00E942D16E9E3F1E00E947B
:1030D000CE178B01BE01EC01FB2E6F577109759560
:1030E000771F880B990B0E94AC1428E132E741E36B
:1030F0005FE30E941E15AF2D9801AE01FF900F9166
:103100001F91CF91DF910E9444160C948F15FA0104
:10311000DC01AA0FBB1F9B01AC01BF5728F422277B
:1031200033274427507820C0B75190F4AB2F0024A8
:10313000469537952795011CA395D2F3002071F091
:10314000220F331F441FB395DAF30ED00C942C16C4
:1031500061307105A0E88A07B94630F49B01AC01E3
:103160006627772788279078309621F0208331834F
:103170004283538308959F3F31F0915020F4879507
:1031800077956795B795880F911D9695879597F9CF
:103190000895DB018F939F930E94E815BF91AF9133
:1031A000A29F800D911DA39F900DB29F900D1124A1
:1031B000089597FB072E16F4009407D077FD09D0E9
:1031C0000E94F51807FC05D03EF4909581959F4F1D
:1031D0000895709561957F4F0895EE0FFF1F881F2A
:1031E0008BBF0790F691E02D1994AA1BBB1B51E1F0
:1031F00007C0AA1FBB1FA617B70710F0A61BB70B67
:10320000881F991F5A95A9F780959095BC01CD010B
:1032100008950F931F93CF93DF938230910510F49D
:1032200082E090E0E0916805F091690530E020E0EF
:10323000B0E0A0E0309799F42115310509F44AC0B7
:10324000281B390B24303105D8F58A819B81611503
:10325000710589F1FB0193838283FE0111C04081D6
:1032600051810281138148175907E0F04817590727
:1032700099F4109761F012960C93129713961C9381
:103280003296CF01DF91CF911F910F910895009356
:10329000680510936905F4CF2115310551F04217E7
:1032A000530738F0A901DB019A01BD01DF01F801E4
:1032B000C1CFEF01F9CF9093690580936805CDCF19
:1032C000FE01E20FF31F819391932250310939835C
:1032D0002883D7CF2091660530916705232B41F4D1
:1032E0002091020230910302309367052093660516
:1032F00020910002309101022115310541F42DB7D2
:103300003EB74091040250910502241B350BE09119
:103310006605F0916705E217F307A0F42E1B3F0B3B
:103320002817390778F0AC014E5F5F4F2417350737
:1033300048F04E0F5F1F50936705409366058193D9
:1033400091939FCFF0E0E0E09CCFCF93DF93009785
:10335000E9F0FC01329713821282A0916805B091C6
:103360006905ED0130E020E01097A1F42081318162
:10337000820F931F20916605309167052817390742
:1033800009F061C0F0936705E0936605DF91CF9186
:103390000895EA01CE17DF07E8F54A815B819E01B7
:1033A00041155105B1F7E901FB83EA834991599130
:1033B000C40FD51FEC17FD0761F48081918102963F
:1033C000840F951FE90199838883828193819B8370
:1033D0008A83F0E0E0E012968D919C91139700971C
:1033E000B9F52D913C911197CD010296820F931F53
:1033F00020916605309167052817390739F630970F
:1034000051F51092690510926805B0936705A09375
:103410006605BCCFD383C28340815181840F951F41
:10342000C817D90761F44E5F5F4F88819981480FB3
:10343000591F518340838A819B8193838283211505
:10344000310509F0B0CFF0936905E09368059ECF90
:10345000FD01DC01C0CF13821282D7CF4F925F9261
:103460006F927F928F929F92AF92BF92CF92DF9294
:10347000EF92FF920F931F93CF93DF938C010097EE
:1034800099F4CB01DF91CF911F910F91FF90EF90B5
:10349000DF90CF90BF90AF909F908F907F906F9074
:1034A0005F904F900C940919FC01E60FF71F9C01E7
:1034B00022503109E217F30708F4AEC0D901CD91CB
:1034C000DC911197C617D70720F1C530D10578F0E8
:1034D000CE0104978617970750F0C61BD70B22978B
:1034E000C193D1936D937C93CF010E94A519C8011C
:1034F000DF91CF911F910F91FF90EF90DF90CF90D0
:10350000BF90AF909F908F907F906F905F904F9003
:1035100008955B01AC1ABD0A4C018C0E9D1EA09152
:103520006805B0916905512C412CF12CE12C1097C4
:1035300031F580916605909167058815990509F028
:103540005CC04616570608F058C080910002909162
:103550000102009741F48DB79EB74091040250914B
:103560000502841B950BE817F90708F055C0F09386
:103570006705E0936605F90171836083B8CF8D918B
:103580009C91119712966C90129713967C901397BA
:10359000A815B90559F56C0142E0C40ED11CCA1436
:1035A000DB0420F1AC014A195B09DA011296159788
:1035B00080F06282738251834083D9016D937C9342
:1035C000E114F10471F0D7011396FC93EE93129776
:1035D0008ECF22968C0F9D1FF90191838083F3017A
:1035E000EFCFF0936905E093680581CF481659063F
:1035F00008F42C017D01D3019ACFCB010E94091957
:103600007C01009749F0AE01B8010E940F1BC80170
:103610000E94A51987016BCF10E000E068CFFB0185
:10362000DC0102C001900D9241505040D8F708953E
:10363000FB01DC0101900D920020E1F7089511E0FB
:10364000CEE8D1E000E006C0802FFE010E94ED1818
:103650002196011DCF38D10780E00807A9F7F8941B
:10366000FFCF00006A0580000000400014005400F5
:1036700000000000A2030C033903EF036A034803B0
:103680005C03000000007C064F06BF0625064806C6
:103690003506260600000000840A0C03BF0640041D
:1036A0000D0A006E616E00696E66006F7666004EF0
:1036B0006F205261696E0048656C6C6F2100205765
:1036C000656174686572204D6F6E69746F72200059
:1036D000424D503138302073656E736F72206E6FBB
:1036E0007420666F756E642100424D503138302071
:1036F0004572726F7221004661696C656420746F57
:1037000020726561642066726F6D20444854207396
:10371000656E736F7221004448542053656E736F59
:1037200072204572726F722100486561767920526D
:1037300061696E004C69676874205261696E005758
:1037400061726E696E672120436865636B205379EF
:103750007374656D0043617574696F6E21204162F9
:103760006E6F726D616C0053797374656D204F4B91
:10377000002D2D2D2D2D2057656174686572204414
:10378000617461202D2D2D2D2D0048756D696469A2
:1037900074793A20004448542054656D703A2000F2
:1037A000424D503138302054656D703A20005072CF
:1037B0006573737572653A2000416C746974756441
:1037C000653A20005261696E2056616C75653A2039
:1037D00000202D20002D2D2D2D2D2D2D2D2D2D2D8D
:1037E0002D2D2D2D2D2D2D2D2D2D2D2D2D2D2D2D09
:1037F0002D002025004300424D502054656D703A45
:1038000020002068506100206D005261696E3A20EE
:023810000000B6
:020000040003F7
:10E000000D9489F10D94B2F10D94B2F10D94B2F129
:10E010000D94B2F10D94B2F10D94B2F10D94B2F1F0
:10E020000D94B2F10D94B2F10D94B2F10D94B2F1E0
:10E030000D94B2F10D94B2F10D94B2F10D94B2F1D0
:10E040000D94B2F10D94B2F10D94B2F10D94B2F1C0
:10E050000D94B2F10D94B2F10D94B2F10D94B2F1B0
:10E060000D94B2F10D94B2F10D94B2F10D94B2F1A0
:10E070000D94B2F10D94B2F10D94B2F10D94B2F190
:10E080000D94B2F10D94B2F10D94B2F10D94B2F180
:10E090000D94B2F10D94B2F10D94B2F10D94B2F170
:10E0A0000D94B2F10D94B2F10D94B2F10D94B2F160
:10E0B0000D94B2F10D94B2F10D94B2F10D94B2F150
:10E0C0000D94B2F10D94B2F10D94B2F10D94B2F140
:10E0D0000D94B2F10D94B2F10D94B2F10D94B2F130
:10E0E0000D94B2F141546D656761323536300041AF
:10E0F000726475696E6F206578706C6F72657220DE
:10E1000073746B3530305632206279204D4C530099
:10E11000426F6F746C6F616465723E004875683F52
:10E1200000436F6D70696C6564206F6E203D200048
:10E130004350552054797065202020203D20005FF9
:10E140005F4156525F415243485F5F3D2000415658
:10E1500052204C696243205665723D20004743437C
:10E160002056657273696F6E203D20004350552024
:10E1700049442020202020203D20004C6F7720663D
:10E18000757365202020203D20004869676820665F
:10E190007573652020203D200045787420667573D6
:10E1A00065202020203D20004C6F636B2066757336
:10E1B000652020203D20004D617220203720323024
:10E1C000313300312E362E3800342E332E350056A2
:10E1D00023202020414444522020206F7020636F70
:10E1E00064652020202020696E73747275637469E1
:10E1F0006F6E2061646472202020496E74657272B3
:10E20000757074006E6F20766563746F7200726A49
:10E210006D702020006A6D70200057686174207056
:10E220006F72743A00506F7274206E6F7420737541
:10E2300070706F72746564004D7573742062652030
:10E2400061206C6574746572002000577269747483
:10E25000696E672045450052656164696E672045B7
:10E26000450045452065727220636E743D00504F35
:10E27000525400303D5A65726F2061646472003FF1
:10E280003D43505520737461747300403D454550C3
:10E29000524F4D207465737400423D426C696E6B41
:10E2A000204C454400453D44756D70204545505215
:10E2B0004F4D00463D44756D7020464C415348001B
:10E2C000483D48656C70004C3D4C69737420492F83
:10E2D0004F20506F72747300513D51756974005234
:10E2E0003D44756D702052414D00563D73686F7707
:10E2F00020696E7465727275707420566563746FF0
:10E30000727300593D506F727420626C696E6B00BD
:10E310002A0011241FBECFEFD1E2DEBFCDBF01E046
:10E320000CBF12E0A0E0B2E0EEE1FDEF03E00BBFB6
:10E3300002C007900D92A030B107D9F712E0A0E01B
:10E34000B2E001C01D92AE30B107E1F70F9460F367
:10E350000D948DFE01E20EBF0FEF0DBF11241FBE05
:10E360000D9460F30D9400F020E030E040ED57E0B4
:10E3700005C0FA013197F1F72F5F3F4F2817390792
:10E38000C0F308959C01260F311DC901A0E0B0E043
:10E390002F5F3F4FABBFFC018791882361F08093D3
:10E3A000C6008091C00086FFFCCF8091C0008064D1
:10E3B0008093C000EACF08958DE08093C6008091DD
:10E3C000C00086FFFCCF8091C00080648093C000B5
:10E3D0008AE08093C6008091C00086FFFCCF8091C8
:10E3E000C00080648093C00008950F94C2F10F9420
:10E3F000DCF10895FC019081992359F09093C600B7
:10E400008091C00086FFFCCF8091C0008064809323
:10E41000C0003196992379F70895282F982F929567
:10E420009F70892F805D8A3308F0895F8093C600D2
:10E430008091C00086FFFCCF8091C00080648093F3
:10E44000C000822F8F70982F905D9A3308F0995FEB
:10E450009093C6008091C00086FFFCCF8091C000E1
:10E4600080648093C00008959C01FB01853691056E
:10E470001CF46330710594F0C90164E670E00F94F8
:10E480002EFE605D7F4F6093C6008091C00086FFC6
:10E49000FCCF8091C00080648093C0002B30310598
:10E4A00014F43297B4F0C90164E670E00F942EFEC4
:10E4B0006AE070E00F942EFE605D7F4F6093C600AF
:10E4C0008091C00086FFFCCF8091C0008064809363
:10E4D000C000C9016AE070E00F942EFEC0968093E0
:10E4E000C6008091C00086FFFCCF8091C000806490
:10E4F0008093C00008951F93182F8EE692EE60E07F
:10E500000F94C2F11093C6008091C00086FFFCCF2B
:10E510008091C00080648093C0000F94DCF11F9153
:10E5200008952F923F924F925F926F927F928F92B7
:10E530009F92AF92BF92CF92DF92EF92FF920F9392
:10E540001F93DF93CF93CDB7DEB762970FB6F894E2
:10E55000DEBF0FBECDBF382E622ECA01DB015C01CB
:10E560006D01772420E2222E2E010894411C511CBB
:10E570008BC081E0A81680E0B80681E0C80680E084
:10E58000D80628F0C601AA27BB270F940DF2BB2797
:10E59000AD2D9C2D8B2D0F940DF28A2D0F940DF225
:10E5A0002092C6008091C00086FFFCCF8091C00001
:10E5B00080648093C0009DE29093C6008091C0006B
:10E5C00086FFFCCF8091C00080648093C0002092C1
:10E5D000C6008091C00086FFFCCF8091C00080649F
:10E5E0008093C00019828601750188249924A1E0D6
:10E5F0003A1651F03A1620F0B2E03B1661F409C029
:10E600000BBFF701779007C0C7010F9477FE782EF4
:10E6100002C0F7017080872D0F940DF22092C60082
:10E620008091C00086FFFCCF8091C0008064809301
:10E63000C000872D8052F401EF70F0708F3520F408
:10E64000E40DF51D708204C0E40DF51D8EE280839B
:10E650000894E11CF11C011D111D0894811C911CE2
:10E6600090E18916910409F0C2CF80E190E0A0E02A
:10E67000B0E0A80EB91ECA1EDB1E198AC2010F9493
:10E68000FAF10F94DCF16A94662009F072CF629679
:10E690000FB6F894DEBF0FBECDBFCF91DF911F91B3
:10E6A0000F91FF90EF90DF90CF90BF90AF909F9031
:10E6B0008F907F906F905F904F903F902F90089534
:10E6C0002F923F924F925F926F927F928F929F9282
:10E6D000AF92BF92CF92DF92EF92FF920F931F9370
:10E6E000DF93CF93CDB7DEB7CD53D1400FB6F894BB
:10E6F000DEBF0FBECDBF01E20EBF0FEF0DBF94B75F
:10E70000F894A89514BE80916000886180936000A1
:10E7100010926000789493FF05C0E0910002F091A0
:10E7200001021995279A2F9A8091C00082608093E8
:10E73000C00080E18093C40088E18093C1000000A4
:10E74000EE24FF24870144E0A42EB12CCC24DD2448
:10E7500024C0C5010197F1F70894E11CF11C011DCB
:10E76000111D21E2E2162EE4F20620E0020720E06D
:10E77000120718F031E0C32ED12CC801B70127ECE5
:10E780003BE140E050E00F9441FE611571058105C9
:10E79000910519F485B1805885B98091C00087FD35
:10E7A00003C0C114D104A9F2A6014F5F5F4FC25E3E
:10E7B000DE4F59834883CE51D140C25EDE4F8881FF
:10E7C0009981CE51D140019711F00D9410FEC05D9A
:10E7D000DE4F19821882C053D14060E0C15DDE4F28
:10E7E0001882CF52D14088249924C35DDE4F19820C
:10E7F0001882CD52D140C05EDE4F188219821A8233
:10E800001B82C052D140CE5CDE4F188219821A8220
:10E810001B82C253D140EE24FF2487010BBFF701B6
:10E8200007911691C45CDE4F19830883CC53D14005
:10E830000D940BFEC25EDE4F28813981CE51D1404E
:10E840002130310509F52091C600C25EDE4F1982E4
:10E850001882CE51D14022C02F5F3F4F4F4F5F4FA4
:10E86000213082E138078AE7480780E0580780F0C6
:10E87000C45CDE4FE881F981CC53D140EF5FFF4F9C
:10E8800019F0EE27FF27099420E030E040E050E047
:10E890008091C00087FFE0CF2091C600C35DDE4FAE
:10E8A00048815981CD52D1404F5F5F4FC35DDE4FEC
:10E8B00059834883CD52D140213209F063C64A3092
:10E8C000510508F05FC60894811C911C53E0851621
:10E8D000910409F059C600E010E018C081E280936D
:10E8E000C6008091C00086FFFCCF8091C00080648C
:10E8F0008093C0002F5F3F4F2931310579F70F9486
:10E90000DCF10F5F1F4F0530110519F020E030E0FA
:10E91000E5CF10920A0210920B0210920C02109294
:10E920000D02109206021092070210920802109235
:10E930000902109202021092030210920402109235
:10E9400005028FEE90EE60E00F94F5F180E191EE1C
:10E9500060E00F94C2F18091C00087FFFCCF9091DE
:10E96000C600903608F09F759032B8F09093C600BC
:10E970008091C00086FFFCCF8091C00080648093AE
:10E98000C000A0E2A093C6008091C00086FFFCCF2B
:10E990008091C00080648093C000983409F4D7C18E
:10E9A0009934B8F4923409F459C1933458F490333B
:10E9B00019F1903308F4E3C59F33A1F1903409F0C5
:10E9C000DEC5BDC0953409F470C1963409F0D7C5D1
:10E9D00098C1923509F42BC2933538F49C3409F46C
:10E9E000F5C1913509F0CBC518C2963509F445C279
:10E9F000993509F0C4C567C483E792EE62E00F94CD
:10EA0000F5F110920602109207021092080210927D
:10EA1000090210920A0210920B0210920C0210923C
:10EA20000D0213C18FE792EE62E00F94F5F18FEEC5
:10EA300090EE60E00F94F5F181E291EE60E00F94CA
:10EA4000C2F187EB91EE60E00F94F5F180E391EE77
:10EA500060E00F94C2F184EE90EE60E00F94F5F167
:10EA60008FE391EE60E00F94C2F186E090E061E008
:10EA700070E00F9434F20F94DCF18DE591EE60E0DC
:10EA80000F94C2F189EC91EE60E00F94F5F18EE401
:10EA900091EE60E00F94C2F183EC91EE60E00F9490
:10EAA000F5F18CE691EE60E00F94C2F18EE10F94E7
:10EAB0000DF288E90F940DF281E00F940DF20F949E
:10EAC000DCF18BE791EE60E00F94C2F119E0E0E039
:10EAD000F0E010935700E4918E2F0F940DF20F94F5
:10EAE000DCF18AE891EE60E00F94C2F1E3E0F0E03F
:10EAF00010935700E4918E2F0F940DF20F94DCF1D8
:10EB000089E991EE60E00F94C2F1E2E0F0E0109349
:10EB10005700E4918E2F0F940DF20F94DCF188EAE8
:10EB200091EE60E00F94C2F1E1E0F0E01093570045
:10EB30001491812F0F940DF20F94DCF107CF8BE825
:10EB400092EE62E00F94F5F18BE492EE60E00F94A8
:10EB5000F5F10F94DCF100E010E019C0C8016F2D51
:10EB60000F947FFEFF2031F489E492EE60E00F9471
:10EB7000C2F10BC0F092C6008091C00086FFFCCFAE
:10EB80008091C00080648093C0000F5F1F4FC80158
:10EB900081519F41A0E0B0E0ABBFFC01F790BAE229
:10EBA000FB1621F0E2E000301E07C1F60F94DCF105
:10EBB0000F94DCF187E592EE60E00F94F5F10F948D
:10EBC000DCF1CC24DD2400E010E01EC0C8010F946D
:10EBD00077FEF82E882331F489E492EE60E00F94FA
:10EBE000C2F10BC08093C6008091C00086FFFCCFAD
:10EBF0008091C00080648093C000FE1419F00894D6
:10EC0000C11CD11C0F5F1F4FC80181519F41A0E063
:10EC1000B0E0ABBFFC01E790FAE2EF1621F022E092
:10EC20000030120799F60F94DCF10F94DCF182E6C4
:10EC300092EE60E00F94C2F1C60161E070E00F94C3
:10EC400034F20F94DCF10F94DCF110920202109276
:10EC50000302109204021092050278CE89E992EE26
:10EC600062E00F94F5F1279A2F9A16C02F9880E052
:10EC700090E0E0EDF7E03197F1F7019684369105E9
:10EC8000C1F72F9A80E090E0E0EDF7E03197F1F7DF
:10EC9000019684369105C1F78091C00087FFE6CFC9
:10ECA0008091C00087FFFCCF64C485EA92EE62E0E9
:10ECB0000F94F5F140910202509103026091040219
:10ECC0007091050281E020E10F9491F2809102029F
:10ECD00090910302A0910402B091050280509F4FD1
:10ECE000AF4FBF4F8093020290930302A0930402A0
:10ECF000B093050280509041A040B04008F426CE69
:10ED0000A4CF83EB92EE62E00F94F5F140910602FE
:10ED100050910702609108027091090280E020E1A1
:10ED20000F9491F28091060290910702A09108023F
:10ED3000B091090280509F4FAF4FBF4F80930602A2
:10ED400090930702A0930802B0930902FFCD80ECD4
:10ED500092EE62E00F94F5F183E792EE60E00F949B
:10ED6000F5F18FE792EE60E00F94F5F18BE892EE0B
:10ED700060E00F94F5F189E992EE60E00F94F5F10F
:10ED800085EA92EE60E00F94F5F183EB92EE60E09D
:10ED90000F94F5F180EC92EE60E00F94F5F187ECC2
:10EDA00092EE60E00F94F5F188ED92EE60E00F9442
:10EDB000F5F18FED92EE60E00F94F5F18AEE92EEB0
:10EDC00060E00F94F5F183E093EEBDCD87EC92EE19
:10EDD00062E00F94F5F181E40F947BF282E40F94EA
:10EDE0007BF283E40F947BF284E40F947BF285E45E
:10EDF0000F947BF286E40F947BF287E40F947BF20E
:10EE000088E40F947BF28AE40F947BF28BE40F94F6
:10EE10007BF28CE40F947BF299CD88ED92EE62E068
:10EE20000F94F5F1772473948824992409C48FED05
:10EE300092EE62E00F94F5F140910A0250910B02BC
:10EE400060910C0270910D0282E020E10F9491F22A
:10EE500080910A0290910B02A0910C02B0910D02D8
:10EE600080509F4FAF4FBF4F80930A0290930B0289
:10EE7000A0930C02B0930D0269CD8AEE92EE62E08F
:10EE80000F94F5F184EE90EE60E00F94F5F18FECC5
:10EE900091EE60E00F94F5F1662477244301CC5D98
:10EEA000DE4F19821882C452D140D401C301B695F5
:10EEB000A79597958795CA5DDE4F88839983AA8326
:10EEC000BB83C652D140CC5DDE4FA881B981C4520C
:10EED000D1401196CC5DDE4FB983A883C452D14096
:10EEE000CD0162E070E00F9434F2B0E2B093C6005E
:10EEF0008091C00086FFFCCF8091C0008064809329
:10EF0000C000EDE2E093C6008091C00086FFFCCF18
:10EF10008091C00080648093C000F0E2F093C6004E
:10EF20008091C00086FFFCCF8091C00080648093F8
:10EF3000C000CA5DDE4FE880F9800A811B81C6529D
:10EF4000D140BB27A12F902F8F2D0F940DF2CA5DBA
:10EF5000DE4F8881C652D1400F940DF2B0E2FB2EF5
:10EF6000F092C6008091C00086FFFCCF8091C00067
:10EF700080648093C0000DE30093C6008091C000C0
:10EF800086FFFCCF8091C00080648093C00010E2B7
:10EF90001093C6008091C00086FFFCCF8091C00016
:10EFA00080648093C0008BBEF3012791C65DDE4F65
:10EFB0002883CA52D140A22EBB24CC24DD2408943D
:10EFC000611C711C811C911C8BBEF3018791282E42
:10EFD0003324442455240894611C711C811C911C09
:10EFE0008BBEF3013791C55DDE4F3883CB52D140E4
:10EFF0000894611C711C811C911C8BBEF30147910C
:10F00000C45DDE4F4883CC52D140ADEFEA2EAFEF66
:10F01000FA2EAFEF0A2FAFEF1A2F6E0C7F1C801E57
:10F02000911E142D032DF22CEE24EA0CFB1C0C1D5A
:10F030001D1D0F940DF220E22093C6008091C000A8
:10F0400086FFFCCF8091C00080648093C000C65DC5
:10F05000DE4F8881CA52D1400F940DF230E23093D6
:10F06000C6008091C00086FFFCCF8091C000806404
:10F070008093C000C45DDE4F8881CC52D1400F9494
:10F080000DF240E24093C6008091C00086FFFCCFA5
:10F090008091C00080648093C000C55DDE4F888190
:10F0A000CB52D1400F940DF250E25093C6008091A4
:10F0B000C00086FFFCCF8091C00080648093C000B8
:10F0C0008FEFE8168FEFF80680E0080780E018075A
:10F0D00031F484E092EE60E00F94C2F1DFC0D80119
:10F0E000C7018070907CA070B0708050904CA040A0
:10F0F000B040D1F52FEF3FE340E050E0E222F322B1
:10F1000004231523CA5DDE4FA880B980CA80DB8046
:10F11000C652D140AE0CBF1CC01ED11EAA0CBB1CD7
:10F12000CC1CDD1C8EE092EE60E00F94C2F1BB2798
:10F13000A12F902F8F2D0F940DF28E2D0F940DF285
:10F1400030E23093C6008091C00086FFFCCF8091F2
:10F15000C00080648093C0004EE34093C60080915D
:10F16000C00086FFFCCF87C08EE09EEFA0E0B0E03D
:10F17000E822F9220A231B239CE0E91694E9F90608
:10F1800090E0090790E0190709F088C0C45DDE4FE0
:10F19000A881CC52D140EA2EFF2400E010E0102FCD
:10F1A0000F2DFE2CEE24C55DDE4FB881CB52D14031
:10F1B000EB0EF11C011D111DD601C501817090706F
:10F1C000A070B070DC0199278827E80EF91E0A1F8D
:10F1D0001B1F20EF30E040E050E0A222B322C42207
:10F1E000D52241E1AA0CBB1CCC1CDD1C4A95D1F7F1
:10F1F000EA0CFB1C0C1D1D1D81E090E0A0E0B0E0BE
:10F20000282239224A225B2235E1220C331C441C7D
:10F21000551C3A95D1F7E20CF31C041D151D57013E
:10F220006801AA0CBB1CCC1CDD1C85E192EE60E0E1
:10F230000F94C2F1C801AA27BB270F940DF2BB2778
:10F24000A12F902F8F2D0F940DF28E2D0F940DF274
:10F2500090E29093C6008091C00086FFFCCF809121
:10F26000C00080648093C000AEE3A093C60080918C
:10F27000C00086FFFCCF8091C00080648093C000F6
:10F28000C601AA27BB270F940DF2BB27AD2D9C2DDD
:10F290008B2D0F940DF28A2D0F940DF20F94DCF14B
:10F2A000CC5DDE4FE881F981C452D140F99709F471
:10F2B0004DCBF4E0EF2EF12C012D112D6E0C7F1CA7
:10F2C000801E911EF2CD83E093EE62E00F94F5F183
:10F2D0008AE192EE60E00F94C2F18091C00087FF56
:10F2E000FCCF1091C6001F751093C6008091C0001E
:10F2F00086FFFCCF8091C00080648093C0000F9493
:10F30000DCF1812F81548A3108F036C1163409F4BA
:10F3100095C0173490F4133409F44EC0143430F40B
:10F320001134F1F0123409F01DC130C0143409F465
:10F3300059C0153409F016C16BC01A3409F4C4C0A1
:10F340001B3438F4173409F48FC0183409F00AC19B
:10F35000A1C01B3409F4D2C01C3409F003C1E8C0B9
:10F360008FEF81B90DC082B1809582B980E090E0C5
:10F37000E0EDF7E03197F1F70196883C9105C1F790
:10F380008091C00087FFEFCF12B8EFC08FEF84B934
:10F390000DC085B1809585B980E090E0E0EDF7E0A3
:10F3A0003197F1F70196883C9105C1F78091C00033
:10F3B00087FFEFCF15B8D9C08FEF87B90DC088B1DF
:10F3C000809588B980E090E0E0EDF7E03197F1F7C3
:10F3D0000196883C9105C1F78091C00087FFEFCF6F
:10F3E00018B8C3C08FEF8AB90DC08BB180958BB9A7
:10F3F00080E090E0E0EDF7E03197F1F70196883C8E
:10F400009105C1F78091C00087FFEFCF1BB8ADC059
:10F410008FEF8DB90DC08EB180958EB980E090E0F0
:10F42000E0EDF7E03197F1F70196883C9105C1F7DF
:10F430008091C00087FFEFCF1EB897C08FEF80BBD1
:10F440000DC081B3809581BB80E090E0E0EDF7E0F6
:10F450003197F1F70196883C9105C1F78091C00082
:10F4600087FFEFCF11BA81C08FEF83BB0DC084B38C
:10F47000809584BB80E090E0E0EDF7E03197F1F714
:10F480000196883C9105C1F78091C00087FFEFCFBE
:10F4900014BA6BC08FEF809301010FC080910201FD
:10F4A00080958093020180E090E0E0EDF7E03197F5
:10F4B000F1F70196883C9105C1F78091C00087FF64
:10F4C000EDCF1092020151C08FEF809304010FC065
:10F4D0008091050180958093050180E090E0E0ED4A
:10F4E000F7E03197F1F70196883C9105C1F78091DB
:10F4F000C00087FFEDCF1092050137C08FEF8093DA
:10F5000007010FC08091080180958093080180E079
:10F5100090E0E0EDF7E03197F1F70196883C910536
:10F52000C1F78091C00087FFEDCF109208011DC088
:10F530008FEF80930A010FC080910B01809580931B
:10F540000B0180E090E0E0EDF7E03197F1F70196F4
:10F55000883C9105C1F78091C00087FFEDCF1092E4
:10F560000B0103C085E292EEEEC98091C00087FFD7
:10F57000FCCF8091C600EAC988E392EEE4C98CE131
:10F5800091EEE1C988249924933011F1943028F444
:10F59000913089F09230B8F408C0953061F195301F
:10F5A000F0F0963009F048C043C02B3109F042C951
:10F5B00091E06BE13FC96227C15DDE4F2883CF52E6
:10F5C000D14092E037C9B22FA0E0622793E032C960
:10F5D000822F90E0A82BB92B622794E02BC92E3004
:10F5E00009F039C3622795E0C05DDE4F19821882A9
:10F5F000C053D1401FC9E1E0F0E0EC0FFD1FC05D3A
:10F60000DE4F08811981C053D140E00FF11F2083E4
:10F610000F5F1F4FC05DDE4F19830883C053D14079
:10F6200062270A171B0709F005C9D80196E002C92D
:10F63000261709F010C303C0973009F0FBC87724E0
:10F640009981933109F412C19431C8F4963009F4C8
:10F65000D8C0973050F4923009F406C1933009F4C1
:10F660006DC0913009F059C253C0913109F477C08F
:10F67000923108F0BBC0903109F04FC2F5C098310B
:10F6800009F487C0993150F4953109F4EFC09531F0
:10F6900008F4C6C1963109F040C2C2C19A3109F4DA
:10F6A0006CC09A3108F491C09B3109F45BC09D3164
:10F6B00009F033C29D81903359F48F81882311F46E
:10F6C0009EE11CC0813011F091E018C098E916C08D
:10F6D000892F807591F0903539F4E0E0F0E089E011
:10F6E0008093570094910AC0983539F4E3E0F0E034
:10F6F00089E080935700949101C090E01A821B82A8
:10F700008D818C831D829E831F8227E030E009C299
:10F710001A8288E08B8381E48C8386E58D8382E581
:10F720008E8389E48F8383E5888780E589878FE5E9
:10F730008A8782E38B872BE030E0F3C18A818139AD
:10F7400041F0823941F0803911F48FE005C080E04A
:10F7500003C082E001C08AE01A828B8344C0772410
:10F76000739482C08D81882311F48EE12CC0813086
:10F7700011F081E028C088E926C01A82E1E0F0E0BB
:10F7800089E08093570084918B831C8224E030E0D1
:10F79000C8C18B81803589F48C81883039F4E2E0EE
:10F7A000F0E089E08093570084910DC0E0E0F0E044
:10F7B00089E080935700849106C0E3E0F0E089E09F
:10F7C0008093570084911A82DFCF8D81836C99E0FA
:10F7D000E1E0F0E0082E90935700E89507B600FCB2
:10F7E000FDCF1A821B8223E030E09BC180EC8A832C
:10F7F000CE5CDE4F188219821A821B82C253D1401E
:10F800008EC18A8190E0A0E0B0E0582F44273327D2
:10F8100022278B8190E0A0E0B0E0DC0199278827C7
:10F82000282B392B4A2B5B2B8D8190E0A0E0B0E098
:10F83000282B392B4A2B5B2B8C8190E0A0E0B0E089
:10F84000BA2FA92F982F8827282B392B4A2B5B2BCF
:10F85000220F331F441F551FC05EDE4F288339839C
:10F860004A835B83C052D1401A8259C13A81C95C34
:10F87000DE4F3883C753D140CA5CDE4F1882C6536F
:10F88000D1408B81C82EDD24CA5CDE4F488159816E
:10F89000C653D140C42AD52A933109F082C0CE5C28
:10F8A000DE4F88819981AA81BB81C253D1408050AB
:10F8B000904CA340B04030F583E0CE5CDE4FE88052
:10F8C000F9800A811B81C253D140F70100935B008C
:10F8D00080935700E89507B600FCFDCFCE5CDE4F65
:10F8E000088119812A813B81C253D14000501F4FAA
:10F8F0002F4F3F4FCE5CDE4F088319832A833B8313
:10F90000C253D140C05EDE4F488159816A817B81FC
:10F91000C052D140DE011B9631E08C9111962C91A2
:10F9200011971296C75CDE4F2883C953D140C85C3B
:10F93000DE4F1882C853D14090E0C85CDE4FE881AA
:10F94000F981C853D1408E2B9F2B0C01FA01609393
:10F950005B0030935700E89511244E5F5F4F6F4F67
:10F960007F4F0EEFE02E0FEFF02ECE0CDF1CC114F8
:10F97000D10499F685E0C05EDE4F088119812A81A5
:10F980003B81C052D140F80120935B008093570027
:10F99000E89507B600FCFDCF81E180935700E8951C
:10F9A00035C0C05EDE4F88819981AA81BB81C0527B
:10F9B000D140B695A795979587957C018601ABE0D8
:10F9C000AA2EB12CAC0EBD1E0BC0D5016D915D01F0
:10F9D000C7010F947FFE0894E11CF11C01501040F8
:10F9E0000115110591F7A60160E070E0440F551F65
:10F9F000661F771FC05EDE4FE880F9800A811B8199
:10FA0000C052D1404E0D5F1D601F711F1A82C05E33
:10FA1000DE4F488359836A837B83C052D1407FC0C5
:10FA2000FA80C55CDE4FF882CB53D140C65CDE4F16
:10FA30001882CA53D1408B81C82EDD24C65CDE4FAC
:10FA400008811981CA53D140C02AD12A1A828981DA
:10FA5000BE016D5F7F4F843121F59601C05EDE4FA0
:10FA6000E880F9800A811B81C052D1400BBFF701A9
:10FA700087919691DB018C9311969C936E5F7F4FDB
:10FA8000D801C7010296A11DB11DC05EDE4F88835B
:10FA90009983AA83BB83C052D14022503040F1F6F3
:10FAA00036C0C05EDE4F288139814A815B81C052F9
:10FAB000D1400894C108D108760100E010E0089414
:10FAC000C11CD11C0894E11CF11C011D111DE20E8A
:10FAD000F31E041F151F21BDBB27A52F942F832FB5
:10FAE00082BD2F5F3F4F4F4F5F4FF89A80B5DB01CC
:10FAF0008D93BD012E153F054007510761F7C05E8C
:10FB0000DE4F288339834A835B83C052D1409601FC
:10FB10002D5F3F4FFB01108204C080EC8A8322E0FE
:10FB200030E08BE18093C6008091C00086FFFCCF5F
:10FB30008091C00080648093C000C15DDE4FF88179
:10FB4000CF52D140F093C6008091C00086FFFCCF19
:10FB50008091C00080648093C000432F3093C60022
:10FB60008091C00086FFFCCF8091C00080648093AC
:10FB7000C000922F2093C6008091C00086FFFCCF6A
:10FB80008091C00080648093C0008EE08093C600A6
:10FB90008091C00086FFFCCF8091C000806480937C
:10FBA000C00065E1C15DDE4FE880CF52D1406E25D7
:10FBB00069276427FE01319610C090819093C6009A
:10FBC0008091C00086FFFCCF31968091C000806498
:10FBD0008093C0006927215030402115310569F715
:10FBE0006093C6008091C00086FFFCCF8091C0006A
:10FBF00080648093C00085B1805885B9772081F4F6
:10FC0000C15DDE4F0881CF52D1400F5FC15DDE4F35
:10FC10000883CF52D14090E0A0E0B0E00D941AF4F8
:10FC200027982F9880E090E020ED37E0F901319798
:10FC3000F1F7019684369105C9F700008091C00064
:10FC40008D7F8093C00081E180935700E895EE2777
:10FC5000FF270994FFCF90E00D941AF497FB092E2B
:10FC600007260AD077FD04D02ED006D000201AF443
:10FC7000709561957F4F0895F6F7909581959F4F08
:10FC80000895A1E21A2EAA1BBB1BFD010DC0AA1FDD
:10FC9000BB1FEE1FFF1FA217B307E407F50720F0F5
:10FCA000A21BB30BE40BF50B661F771F881F991F70
:10FCB0001A9469F760957095809590959B01AC01B9
:10FCC000BD01CF010895AA1BBB1B51E107C0AA1FAC
:10FCD000BB1FA617B70710F0A61BB70B881F991FED
:10FCE0005A95A9F780959095BC01CD010895F99991
:10FCF000FECF92BD81BDF89A992780B50895262F31
:10FD0000F999FECF1FBA92BD81BD20BD0FB6F89400
:0EFD1000FA9AF99A0FBE01960895F894FFCF63
:00000001FF
